:100000000C94D3080C94FB080C94FB080C94FB088C
:100010000C94FB080C94FB080C94FB080C94FB0854
:100020000C94FB080C94FB080C94700B0C94560D6C
:100030000C94FB080C94FB080C94FB080C94FB0834
:100040000C94FB080C94FB080C94FB080C94FB0824
:100050000C94FB080C94FB080C94FB080C942417DC
:100060000C94FB080C94FB080C94FB080C94FB0804
:100070000C94FB080C94FB080C94FB080C94FB08F4
:100080000C94FB080C94FB080C94FB080C94FB08E4
:100090000C94FB080C94FB080C94FB080C94FB08D4
:1000A0000C94FB080C94FB080C94FB08DC213B230C
:1000B0001E246C245E255D262E28CD2BCD2B5116BB
:1000C0005416431647164B167516751675165816A0
:1000D0005C16601666166A1675167016F0F89C8E19
:1000E0008783878E9CF8F00000FEFF030303030361
:1000F000070EFCF80000FEFF0303030303070EFCDA
:10010000F80000FFFF00000000000000FFFF0000FB
:10011000FEFF8383838383C7EE7C380000F8FC0EE8
:1001200007030303070EFCF800003F7FE0C0808058
:10013000C0E07F3FFFFF01010101010101FFFF005E
:1001400000FFFF0C0C0C0C1C3E77E3C100007FFF8E
:10015000C0C0C0C0C0E0703F1F00001F3F70E0C0C3
:10016000C0C0E0703F1F00007FFFC1C1C1C1C1E33B
:10017000773E1C00001F3F70E0C0C0C0E0703F1F12
:10018000000000000001FFFF01000000000000006F
:10019000240027002A002D003000D5F08D14A1C8BE
:1001A00081CFD9F1AF200004080201104080401037
:1001B000204080408008020401804020100201108D
:1001C00080102040402000000000250028002B0067
:1001D0002E00310004040404040304050202020298
:1001E00004030202020206060606060604040202D0
:1001F0000204041402130212021502070208020A82
:10020000020A010B020B010902090104010C01069B
:10021000010000061E7E7E1E06000060787E7E784D
:100220006000000000000000000000F8040202026C
:10023000020202020202E2121212121212E202027E
:100240000202020202020204F800000000000000A4
:10025000000000000000000000000000000000009E
:10026000000000000000000000000000000000008E
:10027000000000000000000000000000000000007E
:10028000000000000000000000000000000000006E
:10029000000000000000000000000000000000005E
:1002A0000000000000000000000000FF0000E0105F
:1002B0001010101010080780402020408007081000
:1002C0001010101010E00000FF00000000000000FF
:1002D000000000000000000000000000000000001E
:1002E000000000000000000000000000000000000E
:1002F00000000000000000000000000000000000FE
:1003000000000000000000000000000000000000ED
:1003100000000000000000000000000000000000DD
:100320000000000000000000000000FF00000708BF
:10033000080808080810E0010204040201E010089F
:100340000808080808070000FF000000000000007F
:10035000000000000000000000000000000000009D
:10036000000000000000000000000000000000008D
:10037000000000000000000000000000000000007D
:10038000000000000000000000000000000000006D
:10039000000000000000000000000000000000005D
:1003A00000000000000000000000001F204040404E
:1003B00040404040404047484848484848474040FF
:1003C00040404040404040201F000000000000002E
:1003D000000000000000000000000000000000001D
:1003E000000000000000000000000000000000000D
:1003F00000000000000000000000000000000000FD
:1004000000000000000000000000000000000000EC
:100620000000000000000000000000F804F20A0AC8
:100630000A0A0A0A0A0A0A0A0A0A0A0A0A0A0A0A1A
:100640000A0A0A0A0A0AF204F80000000000000080
:10065000000000800000000000063C804040202098
:1006600024202040404884000060603010000000DA
:1006700000000000000000000000000000008040BA
:1006800020100808080484C4C28282C2C4840408FA
:10069000080810204080000000000000000000005A
:1006A0000000000000000000000000FF00F8050549
:1006B0004545F5F545450505F90101F905054545AA
:1006C000454545450505F800FF0000000000000015
:1006D00000000000010002007C8201000000E81C14
:1006E0000888780E00000041C23C00002000000095
:1006F0000000000000000000000000C038070000FB
:100700000000003C62C1C1FFFF8181FFFF010306C1
:100710000F00000000000738C000000000000000CB
:100720000000000000000000000000FF00E31414BF
:1007300054D49515D4541414E30000E31414141481
:10074000545414141414E300FF00000000000000CF
:100750000000000000000000000001020202E3109F
:10076000884F2C24940402010002060400000000BB
:10077000FE00000000000000000000031CE000007C
:10078000000000E0C08000FFFF0303FFFF06068CAF
:10079000780000000000E01C0300000000000000E2
:1007A00000000000000000000000003F404F5050DB
:1007B00054565153565450504F40404F5050515141
:1007C0005555515150504F403F000000000000006F
:1007D0000000000C1020404040404040404049553F
:1007E0005452494542404040404040404040201023
:1007F0000F000000000000000000000000000102E7
:1008000004081011102123274743434727232110B1
:1008100010100804020100000000000000000000A9
:100820000000000000000000000000000060904890
:10083000281008080804040402061E020404040820
:100840000808102848906000000000000000000028
:10085000000000F804F21A2A4A0A0A0A0A0A0A0AD6
:100860000A0A0A0A0A0A0A0A0A0A0A4A2A1AF20496
:10087000F800000000000000000000FC020202027C
:100880000202020202020202020202020202020248
:100890000202020202020202FC000000000000004C
:1008A0000000000000000000000000C0B8878000C9
:1008B000000000000000000080C0E0F0F8783C0E6E
:1008C00007030000000007B8C0000000000000009F
:1008D000000000FF000110F8F80000F8F888888890
:1008E00000C000F0F808F8F000F0F808F8F0010097
:1008F000FF00000000000000000000FF01010101F6
:1009000001010101013129E50505050505FD01018B
:100910000101010101010101FF00000000000000D0
:100920000000000000000000000000031DE00000C7
:1009300000000000000000000303030100000000AD
:10094000000000000001E11D0300000000000000A5
:10095000000000FF0000407F7F40003878407F3F6C
:10096000000C003F7F407F3F003F7F407F3F000003
:10097000FF00000000000000000000FF0000000079
:1009800000000000000000FF0000000000FF000069
:100990000000000000000000FF0000000000000058
:1009A0000000000000000000000000000000010244
:1009B00004081010102020204078604020202010D3
:1009C00010100804020100000000000000000000F8
:1009D0000000001F204E585452505050505050505C
:1009E00050505050505050505050505254584E202B
:1009F0001F000000000000000000007F4040404059
:100A00004040404040585457505050505057545810
:100A100040404040404040407F0000000000000057
:100A20000000080B0002020201000904000001029C
:100A30000200000524001001052401010104240224
:100A40000605240600010705810310004009040182
:100A500000020A00000007050202400000070583AB
:100A6000024000000403090441726475696E6F203E
:100A70004C4C430041726475626F790012010002B0
:100A800000000040412336800001010203011201F1
:100A90000002EF0201404123368000010102030100
:100AA00000000000003E5B4F5B3E3E6B4F6B3E1C08
:100AB0003E7C3E1C183C7E3C181C577D571C1C5E1F
:100AC0007F5E1C00183C1800FFE7C3E7FF001824F6
:100AD0001800FFE7DBE7FF30483A060E26297929A0
:100AE00026407F050507407F05253F5A3CE73C5AD5
:100AF0007F3E1C1C08081C1C3E7F14227F22145FB2
:100B00005F005F5F06097F017F006689956A60600C
:100B100060606094A2FFA29408047E040810207E06
:100B2000201008082A1C08081C2A08081E1010108B
:100B3000100C1E0C1E0C30383E3830060E3E0E06D1
:100B4000000000000000005F000000070007001424
:100B50007F147F14242A7F2A1223130864623649E3
:100B60005620500008070300001C224100004122CB
:100B70001C002A1C7F1C2A08083E080800807030D0
:100B8000000808080808000060600020100804023F
:100B90003E5149453E00427F400072494949462145
:100BA00041494D331814127F1027454545393C4AB9
:100BB00049493141211109073649494936464949D0
:100BC000291E000014000000403400000008142218
:100BD0004114141414140041221408020159090686
:100BE0003E415D594E7C1211127C7F494949363E87
:100BF000414141227F4141413E7F494949417F096D
:100C00000909013E414151737F0808087F00417F77
:100C100041002040413F017F081422417F40404075
:100C2000407F021C027F7F0408107F3E4141413E0D
:100C30007F090909063E4151215E7F09192946268F
:100C40004949493203017F01033F4040403F1F2093
:100C500040201F3F4038403F63140814630304786A
:100C600004036159494D43007F414141020408108A
:100C700020004141417F04020102044040404040C5
:100C8000000307080020545478407F284444383833
:100C900044444428384444287F38545454180008A5
:100CA0007E090218A4A49C787F0804047800447D7F
:100CB00040002040403D007F1028440000417F401C
:100CC000007C047804787C08040478384444443870
:100CD000FC1824241818242418FC7C080404084850
:100CE0005454542404043F44243C4040207C1C20A1
:100CF00040201C3C4030403C44281028444C9090FC
:100D0000907C4464544C4400083641000000770055
:100D100000004136080002010204023C2623263C62
:100D20001EA1A161123A4040207A385454555921ED
:100D300055557941215454784121555478402054D7
:100D40005579400C1E527212395555555939545423
:100D5000545939555454580000457C410002457D92
:100D6000420001457C40F0292429F0F0282528F094
:100D70007C545545002054547C547C0A097F4932E8
:100D8000494949323248484832324A4848303A4163
:100D900041217A3A42402078009DA0A07D39444408
:100DA00044393D4040403D3C24FF2424487E494393
:100DB000662B2FFC2F2BFF0929F620C0887E090304
:100DC00020545479410000447D413048484A32382B
:100DD0004040227A007A0A0A727D0D19317D262957
:100DE000292F28262929292630484D40203808084F
:100DF000080808080808382F10C8ACBA2F10283483
:100E0000FA00007B000008142A142222142A140875
:100E10009500220095AA005500AAAA55AA55AA0035
:100E20000000FF00101010FF00141414FF00101039
:100E3000FF00FF1010F010F0141414FC001414F74D
:100E400000FF0000FF00FF1414F404FC141417103A
:100E50001F10101F101F1414141F00101010F0008A
:100E60000000001F101010101F10101010F01000C4
:100E70000000FF101010101010101010FF100000D4
:100E800000FF140000FF00FF00001F10170000FC0F
:100E900004F414141710171414F404F40000FF00E1
:100EA000F714141414141414F700F714141417146A
:100EB00010101F101F141414F4141010F010F00070
:100EC000001F101F0000001F14000000FC14000091
:100ED000F010F01010FF10FF141414FF1410101075
:100EE0001F00000000F010FFFFFFFFFFF0F0F0F028
:100EF000F0FFFFFF0000000000FFFF0F0F0F0F0FBC
:100F000038444438447C2A2A3E147E0202060602F3
:100F10007E027E0263554941633844443C04407E6E
:100F2000201E2006027E020299A5E7A5991C2A49E7
:100F30002A1C4C7201724C304A4D4D303048784872
:100F400030BC625A463D3E494949007E0101017E5E
:100F50002A2A2A2A2A44445F444440514A444040B1
:100F6000444A51400000FF0103E080FF00000808F0
:100F70006B6B083612362436060F090F0600001870
:100F8000180000001010003040FF0101001F010197
:100F90001E00191D1712003C3C3C3C0000000000E4
:100FA00000000000000000002A2B280000000000C4
:100FB0000000000000000000000000000000000031
:100FC0002C9EB4A0A1A2A434A6A7A5AE362D373876
:100FD000271E1F20212223242526B333B62EB7B87F
:100FE0009F8485868788898A8B8C8D8E8F9091923D
:100FF000939495969798999A9B9C9D2F3130A3AD89
:10100000350405060708090A0B0C0D0E0F10111206
:10101000131415161718191A1B1C1DAFB1B0B50003
:101020000000000200090F0000030401000C000092
:1010300000000000000000000000000000000005AB
:10104000010906A1018502050719E029E715002518
:101050000175019508810295017508810395067552
:1010600008150025650507190029658100C04E4156
:101070004E494E495459494E46CDCCCC3D0AD72312
:101080003C17B7D13877CC2B329595E6241FB14F5A
:101090000A000020410000C84200401C4620BCBE9F
:1010A0004CCA1B0E5AAEC59D7400407A10F35A000C
:1010B000A0724E18090010A5D4E80000E876481781
:1010C0000000E40B54020000CA9A3B000000E1F566
:1010D00005000080969800000040420F000000A02C
:1010E0008601000000102700000000E80300000057
:1010F000006400000000000A000000000001000081
:101100000000002C76D888DC674F0823DFC1DFAEF3
:1011100059E1B1B796E5E3E453C63AE651997696BC
:10112000E8E6C28426EB898C9B62ED407C6FFCEF85
:10113000BC9C9F40F2BAA56FA5F490055A2AF75CB3
:10114000936B6CF9676DC11BFCE0E40D47FEF52065
:10115000E6B500D0ED902E0300943577050080842D
:101160001E080000204E0A000000C80C3333333341
:101170000F986E12831141EF8D2114893BE65516AD
:10118000CFFEE6DB18D1844B381BF77C1D901DA4E5
:10119000BBE424203284725E228100C9F124ECA1D8
:1011A000E53D2700952C11241FBECFEFDAE0DEBF0E
:1011B000CDBF12E0A0E0B1E0E4E9FDE602C0059099
:1011C0000D92AC36B107D9F727E0ACE6B2E001C02A
:1011D0001D92A038B207E1F718E0C3EDD8E004C0D3
:1011E0002197FE010E94412DC23DD107C9F70E94FF
:1011F000A11E0C94C8360C940000089540918A02F8
:1012000050918B0220918802309189024217530736
:10121000B4F49091E8009570E1F39091E80092FDAC
:1012200019C08093F10080918A0290918B020196FF
:101230008F739927892B19F48EEF8093E8008091A2
:101240008A0290918B02019690938B0280938A027E
:1012500081E0089580E00895CF92DF92EF92FF92AF
:101260000F931F93CF93DF931F92CDB7DEB7182F45
:10127000062FE42E862F880F8E5F99830E94FE082A
:1012800083E00E94FE08F12EC12E9981D92E8C2D6B
:101290008F19801798F4F601E7FE02C0849101C00F
:1012A00080810E94FE08182F80E00E94FE088123A2
:1012B000FFEFCF1ADF0A8111EACF01C081E00F9062
:1012C000DF91CF911F910F91FF90EF90DF90CF9022
:1012D0000895615030F02091F100FC0120830196C7
:1012E000F8CF289884E68093AB020895CF92DF92DE
:1012F000EF92FF920F931F93CF93DF936C017A01CC
:101300008B01C0E0D0E0CE15DF0589F0D8016D91EA
:101310008D01D601ED91FC910190F081E02DC60187
:101320000995892B11F47E0102C02196ECCFC701EB
:10133000DF91CF911F910F91FF90EF90DF90CF90B1
:101340000895CF93DF931F92CDB7DEB76983DC0199
:10135000ED91FC910280F381E02D41E050E0BE016F
:101360006F5F7F4F09950F90DF91CF91089583E0D4
:101370008093E9008091F200882319F08AE380933A
:10138000E8000895FC018485958597FD0BC09FB703
:10139000F89482E08093E9008091F2009FBF90E092
:1013A000019608959FB7F89482E08093E9008091B8
:1013B000F2009FBF90E008950E94653061157105AD
:1013C00079F0FB0101900020E9F73197AF01461B4E
:1013D000570BDC01ED91FC910280F381E02D099423
:1013E00080E090E008950F931F93CF93DF93EC017B
:1013F00088819981009729F02A813B812617370738
:1014000088F48B016F5F7F4F0E949B2F009761F0E4
:10141000998388831B830A832C813D81232B11F4BC
:10142000FC01108281E001C080E0DF91CF911F912B
:101430000F910895CF93DF931F92CDB7DEB7FC01D4
:101440008485958597FD05C02FEF3FEF358724876D
:101450000BC0CE0101960E94771E019719F4898175
:1014600090E002C08FEF9FEF0F90DF91CF91089532
:101470000F931F93CF93DF931F92CDB7DEB78C01ED
:10148000FC018485958597FF0EC0CE0101960E94D0
:10149000771E019719F4298130E002C02FEF3FEF4A
:1014A000F80135872487F801848595850F90DF91B1
:1014B000CF911F910F910895FC0124813581232B39
:1014C00031F421E061157105A1F0FB0108C0FC01B8
:1014D000808191816115710531F421E0FC018081E9
:1014E000882339F005C00E94733021E0892B09F070
:1014F00020E0822F0895EF92FF920F931F93CF93D6
:10150000DF93FC01248135816115710511F480E0C0
:1015100019C041155105A9F07B01EC018A01020FA8
:10152000131FB8010E94F309882389F328813981A8
:101530008C819D81B701820F931F0E947C301D8397
:101540000C8381E0DF91CF911F910F91FF90EF907D
:101550000895CF93DF9300D0CDB7DEB769831A82A9
:1015600041E050E0BE016F5F7F4F0E947B0A0F9009
:101570000F90DF91CF9108950F931F93CF93DF9337
:101580008C01EB01FC01808191810097B1F06881B1
:1015900079816115710579F0428153812C813D81FA
:1015A0004217530740F00E947C308C819D81F801E6
:1015B0009583848313C00E94032F88819981F80149
:1015C000918380838A819B81938382838C819D8197
:1015D00095838483198218821B821A821D821C8241
:1015E000DF91CF911F910F910895CF93DF93EC017D
:1015F00088819981009711F00E94032F1982188227
:101600001D821C821B821A82DF91CF910895EF9276
:10161000FF920F931F93CF93DF93EC017B018A011D
:10162000BA010E94F309811104C0CE010E94F50A9B
:1016300007C01D830C83B701888199810E947C308B
:10164000CE01DF91CF911F910F91FF90EF90089500
:10165000CF93DF93EC016115710559F0FB01019007
:101660000020E9F73197AF01461B570B0E94070B8B
:1016700002C00E94F50ACE01DF91CF910895CF9369
:10168000DF93EC01FB018617970761F060817181A0
:101690006115710529F0448155810E94070B02C034
:1016A0000E94F50ACE01DF91CF910895FC0180815F
:1016B00091810C94032FFC011182108213821282FB
:1016C000158214826115710551F0FB010190002013
:1016D000E9F73197AF01461B570B0C94070B0895A0
:1016E0001F920F920FB60F9211248F939F938091A8
:1016F000E1009091E100937F9093E10083FF0FC0A0
:101700001092E90091E09093EB001092EC0092E3CC
:101710009093ED001092AC0298E09093F00082FF5D
:1017200020C093E09093E9009091F200992319F082
:101730009AE39093E80090918C02992339F090916C
:101740008C02915090938C02992389F19091AB0275
:10175000992339F09091AB0291509093AB02992369
:1017600041F184FF10C08091E2008E7E8160809301
:10177000E2008091E1008F7E8093E10080916D0214
:101780008E7E806111C080FF16C08091E2008E7E47
:1017900080618093E2008091E1008E7E8093E10081
:1017A00080916D028E7E816080936D0204C05D9A8F
:1017B000CDCF289AD6CF9F918F910F900FBE0F90CB
:1017C0001F901895DF92EF92FF920F931F93CF9384
:1017D000DF93D82E8A017B01E40EF51EEB01CE15B6
:1017E000DF0571F0D7FE03C0FE01849101C088813E
:1017F0000E94FE0821968111F2CF8FEF9FEF01C06A
:10180000C801DF91CF911F910F91FF90EF90DF9072
:1018100008958F929F92AF92BF92CF92DF92EF92F4
:10182000FF920F931F93CF93DF9300D01F92CDB7FA
:10183000DEB7382F8B018091AC02811103C08FEF8E
:101840009FEF7DC080916D0280FF05C08091E00018
:1018500082608093E0004A018AEFF82E832F877020
:10186000E82E9FE3C92E832F8072B82E2AE3D22E52
:10187000832F8074A82E8114910409F457C08FB768
:10188000F894E092E9009091E80095FF05C09091EE
:10189000F2002C2D291B01C020E08FBF211110C0A8
:1018A000FA94FF2061F261E070E080E090E039831B
:1018B0004A835B830E94EA1639814A815B81DBCFD0
:1018C000822F90E0881699060CF4282D6FB7F894B3
:1018D000E092E9008091E80085FF26C0822F90E029
:1018E000881A990ABB2029F02150A8F01092F10023
:1018F000FBCFF80137FF07C0215058F07491709367
:10190000F1003196F9CF215020F071917093F100E0
:10191000FACF080F191F8091E80085FF0DC08114D0
:10192000910411F4A11008C06FBFA5CF5D9884E6A3
:1019300080938C02CA0103C0D092E800F5CF0F90CB
:101940000F900F90DF91CF911F910F91FF90EF902B
:10195000DF90CF90BF90AF909F908F900895CF93DE
:10196000DF93EC0180911201882331F083E00E9423
:10197000090C1816190634F081E090E09B838A83E5
:1019800080E090E0DF91CF9108954F925F926F9247
:101990007F92EF92FF920F931F93CF93DF93CDB778
:1019A000DEB7A1970FB6F894DEBF0FBECDBF7C01A6
:1019B000FA01CB0119A2223008F42AE08E010F5D52
:1019C0001F4F422E512C612C712CBF01A30192019B
:1019D0000E949736F901CA01015011096A3014F4C6
:1019E000605D01C0695CD8016C93232B242B252BEF
:1019F00061F7B801C7010E94DE09A1960FB6F894FD
:101A0000DEBF0FBECDBFDF91CF911F910F91FF9031
:101A1000EF907F906F905F904F9008950C94DE0947
:101A200080917F0281110DC082E080937B0284E06F
:101A300080937C0210927E0210927D0281E080935E
:101A40007F028BE792E008950F931F93CF93DF936C
:101A50001F92CDB7DEB782E0898342E450E062E2B4
:101A60007AE080E80E94E20B0E94100DDC011296E1
:101A70000D911C9113970115110569F0D801ED9195
:101A8000FC910280F381E02DBE016F5F7F4FC801A2
:101A9000099597FF07C089810F90DF91CF911F9122
:101AA0000F910895F80100851185E5CF1F920F92DF
:101AB0000FB60F921124CF92DF92EF92FF920F9305
:101AC0001F932F933F934F935F936F937F938F93C6
:101AD0009F93AF93BF93EF93FF93CF93DF93CDB7D4
:101AE000DEB76C97DEBFCDBF1092E9008091E800B1
:101AF00083FFFAC168E0CE0145960E94690982EF32
:101B00008093E8008D8987FF05C09091E80090FFE1
:101B1000FCCF03C09EEF9093E800982F907609F0D9
:101B2000C6C09E892F89188D91110CC0803829F468
:101B300080916E028093F10002C01092F100109229
:101B4000F10047C1422F50E0512B913051F48111E7
:101B500040C14130510509F03CC180916E028D7F3A
:101B60000BC0933061F4811134C14130510509F04B
:101B700030C180916E02826080936E022AC19530DE
:101B800041F48091E80080FFFCCF20682093E300BF
:101B900020C1963009F05FC0EB8CFC8C1092E900FC
:101BA00010928B0210928A02123091F510928902E3
:101BB000109288020E94240D99E0BE016F5F7F4F52
:101BC000DB01E92F1D92EA95E9F799831A8391E0E9
:101BD0009E8390EA98879AEF998720918A023091A4
:101BE0008B02275F3F4F3C832B838D831092E9004C
:101BF00010928B0210928A02F0928902E09288027F
:101C000049E050E080E00E94E20B0E94240DE1C018
:101C1000F0928902E09288020E94100DDC01129677
:101C2000ED90FC901397E114F10409F4C0C0D701C2
:101C3000ED91FC910480F581E02DBE016B5E7F4F3C
:101C4000C7010995009719F00CF0C3C0C6C0F70191
:101C5000E084F184E8CF973009F4BFC0983021F4D4
:101C600081E08093F100B5C0993009F0B2C0837073
:101C700009F0B3C0E1E0F1E081E021E036E39081DA
:101C8000992361F08093E9002093EB009191909368
:101C9000EC003093ED008F5F873089F78EE78093FB
:101CA000EA001092EA008F898093AC0292C08B8D7B
:101CB0009C8D1092E90010928B0210928A029093F0
:101CC000890280938802898D811156C08E899D89F1
:101CD000913A59F4813209F080C047E050E06BE05E
:101CE00071E080E00E94E20B74C0913209F075C08F
:101CF000833289F4888D90E0982F88272F89822B52
:101D0000A0E0B0E08093070190930801A09309013F
:101D1000B0930A015EC0803269F48091E80082FFCE
:101D2000FCCF67E08BE091E00E9469098BEF809324
:101D3000E80006C0823209F04CC08F8980931201FE
:101D400080916C02882319F0EEEFFAE002C0E0E027
:101D5000F8E080910B0190910C01A0910D01B091E0
:101D60000E01803B9440A105B10509F088C0809127
:101D7000120180FFA0C083C00E94100DDC011296EA
:101D80000D911C9113970115110539F1D801ED91B1
:101D9000FC910190F081E02DBE016B5E7F4FC80188
:101DA0000995811116C0F80100851185ECCF11301D
:101DB000C1F0133091F48F89882309F455C0823023
:101DC000E9F440E867E084E79AE00E942C09882360
:101DD00021F08EEF8093E80087C081E28093EB00D2
:101DE00083C08B8D9C8D089711F41093870280918E
:101DF0008702811136C06CE77AE038C0813029F45F
:101E000040E86BE088E69AE0E0CF833031F70E944B
:101E1000100DDC011296ED90FC9013978E010F5F70
:101E20001F4F6801E114F10479F0D701ED91FC91A5
:101E30000680F781E02DB801C7010995080F111D33
:101E4000F701E084F184EECFD8011C92F6010190F5
:101E50000020E9F73197BF016C197D0940E0C60108
:101E6000B4CF6EE87AE002C064E67AE061157105ED
:101E700009F4B3CFFB01449150E080E833CF0FB6B3
:101E8000F894A8958091600088618093600010921A
:101E900060000FBEA895EE3F2AE0F20739F080916E
:101EA000FE0A9091FF0A9183808393CF1092FF0ADC
:101EB0001092FE0A8ECFEE3F8AE0F80731F0808163
:101EC00091819093FF0A8093FE0A87E797E79183B9
:101ED00080839BE088E10FB6F894A895809360001A
:101EE0000FBE9093600075CF6C960FB6F894DEBF6E
:101EF0000FBECDBFDF91CF91FF91EF91BF91AF9119
:101F00009F918F917F916F915F914F913F912F9111
:101F10001F910F91FF90EF90DF90CF900F900FBE29
:101F20000F901F901895EF92FF920F931F93CF93EE
:101F3000DF93CDB7DEB7A7970FB6F894DEBF0FBE1D
:101F4000CDBF7A011BA21AA21DA21CA21FA21EA213
:101F50008E010F5F1F4F22E044E00E949130BC01D0
:101F6000CE0182960E94280BBE016E5D7F4FC70195
:101F70000E94BC0ACE0182960E94560BA7960FB60D
:101F8000F894DEBF0FBECDBFDF91CF911F910F91AF
:101F9000FF90EF90089560E070E0FC0180819181F6
:101FA0000C940D310F931F93CF93DF93EB0181E0DE
:101FB0008BA78B01085E1F4F63EB71E0C8010E9485
:101FC0005C0A811107C042E050E06BEB71E0C80190
:101FD0000E947B0AB801CE01DF91CF911F910F9132
:101FE0000C943F0BCF92DF92EF92FF920F931F93CF
:101FF000CF93DF9300D000D0CDB7DEB76B017C016B
:1020000069EB71E0C80129833A834B835C830E94AA
:102010005C0A29813A814B815C81882329F0C701C0
:10202000B6010E945C2D3FC065E672E0C8012983BD
:102030003A834B835C830E945C0A29813A814B81FD
:102040005C81882329F0C701B6010E945B2D2BC05B
:1020500067E672E0C80129833A834B835C830E9460
:102060005C0A29813A814B815C81882329F0C70170
:10207000B6010E94F13217C069E672E0C8012983F7
:102080003A834B835C830E945C0A29813A814B81AD
:102090005C81882329F0C701B6010E94C82D03C0C6
:1020A00060E070E0CB010F900F900F900F90DF91E8
:1020B000CF911F910F91FF90EF90DF90CF900895F7
:1020C000CF92DF92EF92FF920F931F93CF93DF9304
:1020D000EB016B0126E0C20ED11C69E372E0C60180
:1020E0000E945C0A9E01285E3F4F79018E010E5EC0
:1020F0001F4F811142C01AA61BA6C9010E94CB0F17
:102100006EA37FA388A799A7B601C8010E943F0BC1
:10211000C7010E94CB0F9B01AC016E8D7F8D88A102
:1021200099A186010E94F20F6E8F7F8F88A399A3D9
:1021300069E372E0C6010E94280B6E013CE0C30E09
:10214000D11C69E372E0C6010E945C0A81112AC0B9
:102150002E8D3F8D48A159A16AA17BA18CA19DA183
:1021600086010E94F20F6E8F7F8F88A399A369E387
:1021700072E0C6010E94280B15C069E372E0C80135
:102180000E945C0A81110EC02EA13FA148A559A54D
:102190006E8D7F8D88A199A10E94F20F6E8F7F8F27
:1021A00088A399A36E8D7F8D88A199A1A7010E9414
:1021B000930FB701CE01DF91CF911F910F91FF9047
:1021C000EF90DF90CF900C943F0BAF92BF92CF92E5
:1021D000DF92EF92FF920F931F93CF93DF93EC0167
:1021E0006B017C0186E0E80EF11C69E372E0C70137
:1021F0000E945C0A882391F01AA65E0188E1A80E6D
:10220000B11CC5010E94CB0F6E8F7F8F88A399A34D
:1022100063EB71E0C5010E94280B30C069EB71E0EF
:10222000C7010E945C0A811107C065E672E0C70120
:102230000E945C0A882381F18BA58823F9F01BA6F4
:102240001AA68E8D9F8DA8A1B9A18AA39BA3ACA32A
:10225000BDA35E0188E1A80EB11CC5010E94CB0F91
:102260006E8F7F8F88A399A363EB71E0C5010E94F5
:10227000280BB701CE010C960E943F0BB601C70197
:10228000DF91CF911F910F91FF90EF90DF90CF9052
:10229000BF90AF900C943F0B67E672E0C7010E94BD
:1022A0005C0A811107C069E672E0C7010E945C0AFE
:1022B000882331F18BA5882309F31BA61AA65E019A
:1022C00088E1A80EB11CC5010E94CB0F9B01AC0197
:1022D0006E8D7F8D88A199A187010E94F20F6E8F6C
:1022E0007F8F88A399A363EB71E0C5010E94280B3F
:1022F0006E8D7F8D88A199A1AE010E94930FBECFF4
:10230000DF91CF911F910F91FF90EF90DF90CF90D1
:10231000BF90AF900895AF92BF92CF92DF92EF92AD
:10232000FF920F931F93CF93DF93EC016B017C011E
:1023300086E0E80EF11C69E372E0C7010E945C0AC6
:10234000882391F01AA65E0188E1A80EB11CC50190
:102350000E94CB0F6E8F7F8F88A399A363EB71E0F0
:10236000C5010E94280B33C069EB71E0C7010E94D0
:102370005C0A811107C065E672E0C7010E945C0A31
:10238000882399F18BA5882311F11BA61AA65E015B
:1023900088E1A80EB11CC5010E94CB0F9B01AC01C6
:1023A0006E8D7F8D88A199A187010E94F20F6E8F9B
:1023B0007F8F88A399A363EB71E0C5010E94280B6E
:1023C0006E8D7F8D88A199A1AE010E94930FB601F9
:1023D000C701DF91CF911F910F91FF90EF90DF9098
:1023E000CF90BF90AF900C943F0B67E672E0C701AF
:1023F0000E945C0A811107C069E672E0C7010E9471
:102400005C0A8823D9F18BA5882309F31BA61AA699
:102410005E0188E1A80EB11CC5010E94CB0F9B0193
:10242000AC016E8D7F8D88A199A187010E94F20F6A
:102430006E8F7F8F88A399A363EB71E0C5010E9423
:10244000280B5E018CE0A80EB11C69E372E0C501A7
:102450000E945C0A8111B4CF2E8D3F8D48A159A1F5
:102460006AA17BA18CA19DA185010E94F20F6E8FB4
:102470007F8F88A399A369E372E09FCFDF91CF910B
:102480001F910F91FF90EF90DF90CF90BF90AF9092
:102490000895CF92DF92EF92FF920F931F93CF9305
:1024A000DF9300D000D000D0CDB7DEB76B0181E064
:1024B000FB0183A77B01F8E1EF0EF11C63EB71E0F8
:1024C000C7010E945C0A81111CC069E672E0CE015E
:1024D00001960E945B0BC7010E94CB0F8E010F5F1C
:1024E0001F4F20E030E048EC52E40E94F20FA701B9
:1024F0000E94930FC8010E94560BB701C6010E94AB
:102500003F0B26960FB6F894DEBF0FBECDBFDF910E
:10251000CF911F910F91FF90EF90DF90CF90089592
:102520000F931F93CF93DF9300D000D000D0CDB78F
:10253000DEB78B0169E672E0CE0101960E945B0B6B
:10254000BE016F5F7F4FC8010E94E510CE0101966A
:102550000E94560B26960FB6F894DEBF0FBECDBF75
:10256000DF91CF911F910F9108950F931F93CF93F8
:10257000DF9300D000D000D0CDB7DEB78B0167E687
:1025800072E0CE0101960E945B0BBE016F5F7F4F30
:10259000C8010E94E510CE0101960E94560B2696B6
:1025A0000FB6F894DEBF0FBECDBFDF91CF911F9164
:1025B0000F9108950F931F93CF93DF9300D000D016
:1025C00000D0CDB7DEB78B0165E672E0CE01019693
:1025D0000E945B0BBE016F5F7F4FC8010E948B1191
:1025E000CE0101960E94560B26960FB6F894DEBFD8
:1025F0000FBECDBFDF91CF911F910F9108950F9323
:102600001F93CF93DF9300D000D000D0CDB7DEB7BB
:102610008B0169EB71E0CE0101960E945B0BBE015C
:102620006F5F7F4FC8010E948B11CE0101960E94FF
:10263000560B26960FB6F894DEBF0FBECDBFDF91C6
:10264000CF911F910F9108957F928F929F92AF9299
:10265000BF92CF92DF92EF92FF920F931F93CF938F
:10266000DF9300D000D000D0CDB7DEB78B015B0187
:1026700028E1A20EB11C63EB71E0C5010E945C0A67
:10268000811194C0D8015C968D919C915D97FE015B
:1026900031967F01892B09F468C065E672E0CF01AD
:1026A0000E945B0B4D815E81D8015C968D919C915F
:1026B0005D978417950788F058968D919C9159974E
:1026C000009759F069817A816115710531F00E9496
:1026D0008330DD24D394892B09F0D12CC7010E94CB
:1026E000560BDD2009F441C0F801C48CD58CC1140F
:1026F000D10431F4812C912CCC24C394D12C03C06F
:1027000088248394912C69E372E0C7010E945B0BDB
:10271000D8015C968D919C915D9788169906E8F496
:102720008C159D0508F46C01D8015896ED91FC912B
:102730005997EC0DFD1D7080108258966D917C911B
:102740005997680D791DC7010E94280BF801808DEB
:10275000918DFC01EC0DFD1D7082AE14BF04F9F0EB
:10276000B701C5010E94BC0A1AC065E672E0C70144
:102770000E945B0BD8015C964D915C915D975896D9
:102780006D917C915997C7010E947B0A811103C00A
:10279000C7010E94F50AB701C5010E943F0BC7019E
:1027A0000E94560BB501C8010E943F0B26960FB63A
:1027B000F894DEBF0FBECDBFDF91CF911F910F9177
:1027C000FF90EF90DF90CF90BF90AF909F908F9051
:1027D0007F900895EF92FF921F93CF93DF93EB01C9
:1027E00011E01BA78AA581110DC07B0188E1E80ECD
:1027F000F11C6EE2C7010E94A90AB701CE010E9436
:102800003F0B1AA7DF91CF911F91FF90EF90089592
:102810000F931F93CF93DF93EB0181E08BA78B0185
:10282000085E1F4F63EB71E0C8010E945C0A8111D2
:1028300004C060E3C8010E94A90AB801CE01DF917B
:10284000CF911F910F910C943F0BCB0169E30C9436
:10285000581BCB0168E30C94581BCB0167E30C9425
:10286000581BCB0166E30C94581BCB0164E30C941A
:10287000581BCB0164E30C94581BCB0163E30C940D
:10288000581BCB0162E30C94581BCB0161E30C9401
:10289000581B1F93CF93DF93EC01892B09F018820B
:1028A0008091090781FD2FC00E94AF1886FF2BC0C1
:1028B0008091090782608093090710E480910907DD
:1028C00080FD35C00E94AF1885FF31C08091090797
:1028D000816080930907105E8091090782FD3AC0EC
:1028E0000E94AF1887FF36C08091090784608093EB
:1028F000090710588091090783FD3FC00E94AF1857
:1029000084FD6AC03AC08091090781FF0EC00E9411
:10291000AF1886FD0AC0809109078D7F8093090753
:10292000209719F08881805C888310E0C7CF809160
:10293000090780FFD1CF0E94AF1885FDCDCF8091D0
:1029400009078E7F80930907209731F28881805E86
:102950008883C2CF8091090782FFCCCF0E94AF1835
:1029600087FDC8CF809109078B7F80930907209747
:1029700009F2888180588883BDCF8091090783FF41
:102980000EC00E94AF1884FD0AC080910907877F9E
:1029900080930907209719F08881805F8883809150
:1029A000090784FD20C00E94AF1883FF1CC08091DE
:1029B0000907806180930907185F8091090785FDE9
:1029C00025C00E94AF1882FF21C080910907806254
:1029D000809309071C5F2CC0809109078860809351
:1029E0000907105FDCCF8091090784FFE6CF0E94C2
:1029F000AF1883FDE2CF809109078F7E809309078E
:102A00002097D9F28881885F8883D7CF8091090782
:102A100085FF0EC00E94AF1882FD0AC08091090791
:102A20008F7D80930907209719F088818C5F8883B8
:102A3000812FDF91CF911F9108950F931F93CF9313
:102A4000DF93EC0169E372E042960E94280B69E390
:102A500072E0CE010C960E94280B69E372E0CE0171
:102A600006960E94280B1EA21FA218A619A61AA23B
:102A70001BA21CA21DA21E8E1F8E18A219A28E01BF
:102A8000085E1F4F63EB71E0C8010E94280B1AA675
:102A90001BA6B801CE01DF91CF911F910F910C942D
:102AA0003F0BCB010C941D15DC01FB0112968C91A0
:102AB000129790E02481358182179307D1F4918198
:102AC0008081813A31F481E0913091F0933089F442
:102AD00011C0813271F49B3021F482811F968C9356
:102AE00005C09A3031F4828150968C9381E008952C
:102AF000089580E00895DC01FB0188E4808389E487
:102B0000818384E482831D969C911D979F709F5BB7
:102B100093831D968D919C911E9724E096958795A1
:102B20002A95E1F78F708F5B848385E00895FC011F
:102B300082818F5BFB01808381E00895EF92FF9299
:102B40000F931F93CF93DF93FB012081213851F521
:102B50002381223239F5DC0112962C9130E0448138
:102B6000558142175307F1F4EC010B851C85E12CCC
:102B7000F12C0115110591F0F80144815581628114
:102B8000738180E80E94E20B8F3FFFEF9F0769F09F
:102B9000E80EF91ED8010D911C91EBCF81E08F87D3
:102BA000C70105C080E090E002C08FEF9FEFDF918A
:102BB000CF911F910F91FF90EF900895CF93DF93E6
:102BC000CDB7DEB769970FB6F894DEBF0FBECDBFA5
:102BD000FC01DB018C918F5F8C93BE016F5F7F4F97
:102BE00089E1DB011D928A95E9F729E0298384E0D8
:102BF0008A8391E09D8383E08E832A8721E22B875D
:102C00009C879D879F8722E2288B27E02B8B25E0DE
:102C10002C8B8E8B20E430E0388F2F8B998F828124
:102C20008B8395858685998B8A8B838180688D8B34
:102C300049E150E080E00E94E20B69960FB6F894FB
:102C4000DEBF0FBECDBFDF91CF910895362F90E04C
:102C5000FC01E05EFF4E4491FC01E955FE4F2491DA
:102C6000FC01EC52FE4F8491882309F451C04423A7
:102C7000E1F150E0FA013197EF30F105B0F5E15A9A
:102C8000FF4F0C94412D909180009F7707C0909149
:102C900080009F7D03C090918000977F909380007B
:102CA00024C094B59F7702C094B59F7D94BD1DC08C
:102CB000909190009F7707C0909190009F7D03C0F6
:102CC00090919000977F909390000FC09091C000DA
:102CD0009F7703C09091C0009F7D9093C00005C076
:102CE0009091C200977F9093C200E82FF0E0EE0F22
:102CF000FF1FEA53FE4FA591B4918FB7F894EC9162
:102D0000311103C020952E2301C02E2B2C938FBF91
:102D10000895CF93DF9390E0FC01E955FE4F249195
:102D2000FC01EC52FE4F8491882361F190E0880F02
:102D3000991FFC01E457FE4FC591D491FC01EA5361
:102D4000FE4FA591B491611109C09FB7F894888195
:102D5000209582238883EC912E230BC0623061F48E
:102D60009FB7F8943881822F809583238883EC91D4
:102D70002E2B2C939FBF06C08FB7F894E8812E2B83
:102D800028838FBFDF91CF9108953FB7F89480914A
:102D9000A7029091A802A091A902B091AA0226B51B
:102DA000A89B05C02F3F19F00196A11DB11D3FBF83
:102DB000BA2FA92F982F8827820F911DA11DB11D11
:102DC000BC01CD0142E0660F771F881F991F4A950D
:102DD000D1F708958F929F92AF92BF92CF92DF92D8
:102DE000EF92FF926B017C010E94C5164B015C01C2
:102DF000C114D104E104F104F1F00E94C516DC0114
:102E0000CB0188199909AA09BB09883E9340A105FD
:102E1000B10570F321E0C21AD108E108F10888EE8B
:102E2000880E83E0981EA11CB11CC114D104E104DA
:102E3000F10419F7DDCFFF90EF90DF90CF90BF90B6
:102E4000AF909F908F9008951F920F920FB60F92A0
:102E500011242F933F938F939F93AF93BF938091B0
:102E6000750290917602A0917702B091780230912C
:102E7000A60223E0230F2D3720F40196A11DB11DDA
:102E800005C026E8230F0296A11DB11D2093A602BE
:102E90008093750290937602A0937702B0937802A4
:102EA0008091A7029091A802A091A902B091AA02D4
:102EB0000196A11DB11D8093A7029093A802A09333
:102EC000A902B093AA02BF91AF919F918F913F91B8
:102ED0002F910F900FBE0F901F90189580919E021A
:102EE00081116BC081E0809391028093920227E967
:102EF00032E0309394022093930210929602109243
:102F000095022BE731E030938E0220938D021092D0
:102F100099021092980210929B0210929A0280934A
:102F20009C0280939D0281EC809397020E94100D79
:102F3000FC0121818091910290E0820F911D089700
:102F400024F081E080939E0238C0A281B381109763
:102F500029F48DE892E0938382830EC018968D91B8
:102F60009C911997009711F0DC01F8CF8DE892E061
:102F700019969C938E931897808180938F028181FC
:102F800080939002908180919202890F808380E0EB
:102F9000909191028917A8F6A0919302B0919402A2
:102FA000A80FB11D9C91A181B0E0A050BF4F9C9390
:102FB00091819F5F91838F5FEBCF8DE892E00895C1
:102FC000CF93DF93DC01683810F0685825C0E62FF6
:102FD000F0E067FF12C0E058F10981E090E001C025
:102FE000880FEA95EAF7809514969C9114978923A7
:102FF00014968C93149760E00FC0E056F04F6491E4
:10300000662311F167FF08C014968C9114978D7F89
:1030100014968C9314976F77FD01369686E066239D
:1030200021F09081961301C0108281503196811158
:10303000F6CFED010E946E17BE016C5F7F4F0E94BC
:10304000471D81E090E002C080E090E0DF91CF91E9
:103050000895CF93DF93DC01683810F068582DC0D5
:10306000E62FF0E067FF11C0E058F10981E090E041
:1030700001C0880FEA95EAF714969C911497892B62
:1030800014968C93149760E018C0E056F04F64914A
:10309000611109C081E090E013969C938E93129782
:1030A00080E090E043C067FF08C014968C911497AD
:1030B000826014968C9314976F7716968C9116975E
:1030C000861751F117968C911797861729F1189644
:1030D0008C911897861701F119968C91199786177C
:1030E000D9F01A968C911A978617B1F01B968C918D
:1030F0001B97861789F0FD01369680E090E02191BC
:10310000211105C0FD01E80FF91F668305C0019676
:1031100086309105A1F7BECFED010E946E17BE016A
:103120006C5F7F4F0E94471D81E090E0DF91CF915F
:103130000895EF92FF921F93CF93DF93EC01162F28
:103140000E9429187C01612FCE010E94E017C7015F
:103150009927DF91CF911F91FF90EF9008958FB144
:103160002CB193B130E02095309520743327A9011C
:1031700023E0559547952A95E1F7292F30E02095D2
:103180003095207133273595279535952795242B34
:103190008095807F822B08951F93CF93DF931F929A
:1031A000CDB7DEB7162F682F8AE049830E94261616
:1031B000612F8BE00E9426164981642F89E00F90D1
:1031C000DF91CF911F910C94261683B7817F83BF27
:1031D00083B7816083BF889583B78E7F83BF08954F
:1031E000E0917302F0917402908180917202892BB8
:1031F0008083E0917002F0917102908180916F0262
:10320000809589238083E0917302F091740290810C
:10321000809172028095892380830895E0917002E5
:10322000F0917102908180916F02892B8083E091EF
:103230007302F091740290818091720280958923CB
:10324000808308958EBD00000DB407FEFDCF8EB5BE
:1032500008950F931F93CF93DF931F92CDB7DEB7DF
:10326000182F062F61E089E049830E94261668EC3A
:1032700070E080E090E00E94EA1660E0802F0E94FB
:10328000261682E090E00E9418364981481729F0FE
:10329000642F82E090E00E94203664EF71E080E0CD
:1032A00090E00E94EA1661E0802F0E9426160E949C
:1032B000AF1881238117D9F30F90DF91CF911F9120
:1032C0000F9108956038710518F54034510500F5E7
:1032D000E42FE695E695E695F0E047705527F695DC
:1032E000FE2FEE27F795E7956E0F7F1FFB01E35545
:1032F000FD4F81E090E001C0880F4A95EAF7222354
:1033000019F09081892B03C0809590818923808357
:1033100008952F923F924F925F926F927F928F9279
:103320009F92AF92BF92CF92DF92EF92FF920F9354
:103330001F93CF93DF93CDB7DEB728970FB6F894DE
:10334000DEBF0FBECDBFFB0135E0C39EE00DF11D1A
:1033500011241E161F060CF067C02C2C312CFA010C
:10336000A8E0CA9EE00DF11D11241E161F060CF0E8
:103370005BC05E834D8335E0239FF0011124FA8307
:10338000E98378876F83A12CB12CAC014C5F5F4F30
:103390005C834B8355E0A516B10441F0E981FA81C5
:1033A000EA0DFB1DE056F54F149101C010E04D8071
:1033B0005E8088E0D82E10FD02C0FE2C01C0F02EE9
:1033C000F11009C0E01207C01695DA94420C531CA4
:1033D000D110F1CF1BC08F809884882DAF818A1BBC
:1033E0008C1590F73201862D84198C1558F42F2DE9
:1033F000A301B4018B819C810E9462198FEF681A2E
:10340000780AF1CF9FEF891A990AE7CFBFEFAB1A7D
:10341000BB0AEF81F885E20DF31DF887EF83F6E034
:10342000AF16B10409F0B6CF28960FB6F894DEBFF8
:103430000FBECDBFDF91CF911F910F91FF90EF9005
:10344000DF90CF90BF90AF909F908F907F906F90C4
:103450005F904F903F902F900895CF92EF920F93EF
:10346000CF93DF93EC016A3069F42A8D8E899F89AE
:1034700038E0239F800D911D11249F8B8E8B1D8A18
:103480001C8A34C06D3091F1262FCA8CE98C088DCE
:103490004E895F896C897D89603871052CF44034D0
:1034A000510514F40E9489192A8D422F50E08C890D
:1034B0009D8936E0239F800D911D11249D8B8C8B5F
:1034C0002B8D222399F06AEF64039001659F300DE4
:1034D000112420583F4F2817390744F4E881F98117
:1034E0000190F081E02D6AE0CE01099581E090E045
:1034F000DF91CF910F91EF90CF900895AF92BF924F
:10350000CF92DF92EF92FF920F93CF93DF936C01F4
:103510005B017A01E20EF11CEA0157FF0DC0C0E029
:10352000D0E00AC0C417D5077CF4202FAE01B50146
:10353000C6010E9462192196A70181E4E816F104F0
:103540008CF340E450E0EECFDF91CF910F91FF90EC
:10355000EF90DF90CF90BF90AF9008952F923F9261
:103560004F925F926F927F928F929F92AF92BF9293
:10357000CF92DF92EF92FF920F931F93CF93DF933F
:1035800000D01F92CDB7DEB74C013B012A011C2DA4
:10359000822F90E09B838A8381E090E01C01EA8186
:1035A000FB812E1A3F0A6F01D194C194D108CC0C33
:1035B000DD1CAA24A394B12C302F31703983E394FD
:1035C0000270F02EC5010197EA81FB818E179F07DB
:1035D0000CF054C037FC0AC08A819B8101979B8301
:1035E0008A8392E0C90ED11C2C0C3D1CC501880FAA
:1035F000991F0196280E391E39813323E1F02A8163
:10360000220F2E0D012FA2018A819B81481B590B8D
:10361000B501660D771DC4010E947E1A2A2D220F66
:103620002E0DA2014A195B096A817B81660D771D07
:10363000C4010E947E1AFF20E9F02A81220F2E0D7C
:10364000012FA201EA81FB814E1B5F0BB3016A19B6
:103650007B09C4010E947E1A2A2D220F2E0DA20181
:103660004A195B09B3018A819B81681B790BC401EC
:103670000E947E1A9FEFA91AB90AA4CF0F900F904B
:103680000F90DF91CF911F910F91FF90EF90DF90FE
:10369000CF90BF90AF909F908F907F906F905F90F2
:1036A0004F903F902F9008950C9420360C9418362C
:1036B000FF920F931F93CF93DF938C01F62E81E03F
:1036C000F80183A7E801689663EB71E0CE010E94E0
:1036D0005C0A882329F069E372E0CE010E94280B7E
:1036E0006F2DCE010E94A90ABE01C801DF91CF91C2
:1036F0001F910F91FF900C943F0B8091AD028EBDF6
:10370000EEEAF2E081910DB407FEFDCF8EBD86E0BA
:10371000ED3AF807B9F70DB407FEFDCF089520E0A4
:103720008DEA92E0B22FB111BFEFFC010024B193FA
:10373000B193B193B1930394D1F70895482F909129
:103740006B0720916407309165079230A1F030F447
:10375000992361F0913029F58AE00EC09430A1F0F0
:1037600080F09530F1F460EA7CE810C0280F311D3C
:1037700087FD3A9512C08CE34802200D311D1124BB
:103780000CC068E572E002C060E17EE04603C00163
:10379000479F900D1124280F391F30936507209300
:1037A0006407809164079091650797FF14C020E03B
:1037B00030E0A90160916607709167078091680702
:1037C000909169070E948B321092650710926407EE
:1037D00081110AC008958138904774F080E890E71D
:1037E00090936507809364071092660710926707AD
:1037F000109268071092690708959C01240F311DEB
:103800001216130674F5803891055CF5FC0197FFDC
:1038100002C0E0E0F0E02138310514F020E830E0AB
:103820002E1BAB014770552781E001C0880F4A95D8
:10383000EAF777FF02C0695F7F4F93E07595679560
:103840009A95E1F77695762F662777956795E60F37
:10385000F71FE355FD4F215020F09081982B919355
:10386000FACF0895BF92CF92DF92EF92FF920F931B
:103870001F93CF93DF936C01EB017A01B22E102FCF
:103880004034510528F4422FB701CE010E94FD1BA0
:10389000B701610F711D615071096034710520F429
:1038A0004B2DCE010E94FD1B01E0212FA701BE017F
:1038B000C6010E947E1ACB0DD11DBE016150710957
:1038C000212FA701C6010E947E1ADF91CF911F917F
:1038D0000F91FF90EF90DF90CF90BF900895462F0B
:1038E00050E060E070E02AE00C94C50C2AE040E073
:1038F00050E0BA010C94C50C2F923F924F925F9208
:103900006F927F928F929F92AF92BF92CF92DF92EF
:10391000EF92FF920F931F93CF93DF9300D000D0CD
:10392000CDB7DEB77C016B015A0144244394512C7E
:1039300000E010E083E090E09C838B839AEF692E97
:1039400077247A943EEF832E99249A94922F947040
:103950009983E22FE270EA83F22FF8702F2E217004
:10396000322E0F5F1F4FE2E04E0E511C840C951C4F
:10397000F981FF23B1F021E04B815C814A0D5B1D91
:10398000B601600F711FC7010E94621921E0A501F5
:10399000400F511F6B817C816C0D7D1DC7010E9402
:1039A00062198A818823B9F021E0A501EB81FC81AD
:1039B0004E1B5F0BB601600F711FC7010E94621999
:1039C00021E0A501401B510B6B817C816C0D7D1D9D
:1039D000C7010E9462192220B9F021E0A501400F21
:1039E000511FB6018B819C81681B790BC7010E9416
:1039F000621921E04B815C814A0D5B1DB601601BA1
:103A0000710BC7010E9462193320C1F021E0A501AA
:103A1000401B510BB601EB81FC816E1B7F0BC70174
:103A20000E94621921E0A5018B819C81481B590BE2
:103A3000B601601B710BC7010E946219EB81FC810A
:103A40000E171F076CF497FC8CCF8B819C8101971C
:103A50009C838B8392E0690E711C860C971C81CF2E
:103A60000F900F900F900F90DF91CF911F910F91BA
:103A7000FF90EF90DF90CF90BF90AF909F908F908E
:103A80007F906F905F904F903F902F900895CF92CE
:103A9000DF92EF92FF920F931F93CF93DF931F92CA
:103AA000CDB7DEB77C016B0182E0898341E050E055
:103AB000BE016F5F7F4FF70183810E94090C8C016B
:103AC00097FD0CC0F701838148E050E0B6018064A7
:103AD0000E94090C97FD02C0800F911F0F90DF918B
:103AE000CF911F910F91FF90EF90DF90CF900895AD
:103AF0002F923F924F925F926F927F928F929F92FE
:103B0000AF92BF92CF92DF92EF92FF920F931F93EB
:103B1000CF93DF93CDB7DEB728970FB6F894DEBF0B
:103B20000FBECDBF5A01822E912C9C01280D391D4C
:103B300037FDC4C0803891050CF0C0C09B01200F38
:103B4000311D37FDBBC0603471050CF0B7C0AB014F
:103B500077FF04C044275527461B570B477055274E
:103B60009B0177FF02C0295F3F4FE3E03595279522
:103B7000EA95E1F777FF08C02150310968E070E06D
:103B8000DB01A41BB50BAD01602F669566956695AC
:103B900070E0077011F06F5F7F4FDB01A20FB31F62
:103BA000BA83A98339017694762C66247794679436
:103BB000680E791EE12CF12C00E010E02301B0E842
:103BC0004B0E511C68E070E0DB01A41BB50BBC83FD
:103BD000AB8369817A812617370709F46FC02830D3
:103BE000310509F46BC02F3FBFEF3B070CF45BC0FE
:103BF000B201600F711FDB01A355BD4FBE83AD83C2
:103C0000D801A60DB71DA355BD4F6C0160E070E053
:103C1000681579050CF047C0E0E8CE16D10409F428
:103C200042C0D7FC34C02F3FFFEF3F0709F442C02A
:103C3000FB01EE0DFF1DEA0DFB1DE491042E01C0FA
:103C4000EE0F0A94EAF73C90E329EC9341155105F5
:103C5000F1F027303105D9F0FB01EE0DFF1DEA0D23
:103C6000FB1DE4912E2E312CF1010B8002C0F59545
:103C7000E7950A94E2F7F887EF83ED81FE813080C3
:103C8000EF81F885E3291F01ED81FE8120826F5FBE
:103C90007F4FED81FE813196FE83ED83FFEFCF1ADA
:103CA000DF0A1196B5CF2F5F3F4F00581F4FE80C2A
:103CB000F91C8FCF4115510579F6E9CF28960FB63B
:103CC000F894DEBF0FBECDBFDF91CF911F910F9152
:103CD000FF90EF90DF90CF90BF90AF909F908F902C
:103CE0007F906F905F904F903F902F900895FC01D0
:103CF0008091AC02811103C08FEF9FEF08959FB7B1
:103D0000F89482E08093E9002091F20030E01216EE
:103D1000130614F421E030E02115310559F02898FC
:103D200084E68093AB028091F10080838091F20061
:103D3000882319F09FBFC90108958BE68093E8009E
:103D4000F9CFCF93DF93CDB7DEB7C654D1090FB605
:103D5000F894DEBF0FBECDBF789484B5826084BD79
:103D600084B5816084BD85B5826085BD85B581607F
:103D700085BD80916E00816080936E0010928100FD
:103D800080918100826080938100809181008160B8
:103D90008093810080918000816080938000809179
:103DA0009100826080939100809191008160809366
:103DB0009100809190008160809390008091C1007B
:103DC00084608093C1008091C10082608093C100B3
:103DD0008091C10081608093C1008091C3008160A7
:103DE0008093C3008091C00082608093C000809166
:103DF000C20081608093C20080917A0084608093C9
:103E00007A0080917A00826080937A0080917A00B3
:103E1000816080937A0080917A00806880937A0034
:103E20001092AC0210926E0210926D028091D70037
:103E300081608093D70080EA8093D80089B5806143
:103E400089BD89B5826089BD09B400FEFDCF61E0FE
:103E500070E080E090E00E94EA168091D8008F7CAC
:103E600080618093D8008091E000807F8093E000A3
:103E70008091E1008E7E8093E1008DE08093E200EE
:103E8000559A209AEEEFFFE7859194918B3F9C4DD8
:103E900019F481E080936C028FEF9FEF9093BA0644
:103EA0008093B9061FB7F89480917A02811127C0D8
:103EB000E5EEF1E08491E8EBF1E09491E82FF0E099
:103EC000EE0FFF1FE457FE4FA591B491EC91E9234B
:103ED00021F461E081E10E94261661E081E10E9407
:103EE00089168CB580618CBD8CB580648CBD61E019
:103EF0008FE00E94891661E080E10E94891680911E
:103F00007A028F5F80937A021FBF03EF11E0F801FE
:103F100084910E5F1F4F31966491882319F00E949F
:103F20008916F5CF61E086E00E94261661E070E018
:103F300080E090E00E94EA1660E086E00E9426168B
:103F40006AE070E080E090E00E94EA1661E086E0BE
:103F50000E942616E0EEF1E0E491F0E0EE0FFF1F84
:103F6000EA53FE4F8591949190937402809373026B
:103F7000E3EBF1E0E491E0937202E8EDF1E0E4912B
:103F8000F0E0EE0FFF1FEA53FE4F8591949190935E
:103F9000710280937002EBEAF1E0E491E0936F022A
:103FA0008CB58C7F8CBD8DB581608DBD0E94F01865
:103FB0000AE911E05DE0F52EF00EF80184910E940F
:103FC00022190F5F1F4FF012F8CF0E940E19809137
:103FD00064008160809364008091640082608093BB
:103FE0006400809164008068809364008091640024
:103FF0008064809364008091650081608093650097
:1040000000E014E080E00E94221901501109D1F76C
:104010000E94AF1887FF3CC00E94F01885EA0E94FA
:1040200022190E940E1940E060E080E00E94CC1846
:104030000E94AF1884FD03C00E94E518F9CF41E04B
:1040400061E081E00E94CC180E94F01884EA0E948E
:1040500022190E940E191CC060E089E00E942616F9
:104060000E94AF188478843821F44FEF6BE00E94EF
:1040700029190E94AF188471843121F440E06AE06C
:104080000E94291968EC70E080E090E00E94EA1636
:104090000E94AF1882FDE0CF61E089E00E94261601
:1040A00060E08AE00E9426162EEEE22EFF24FA94AB
:1040B0001E2D1C3F19F441E060E004C0183129F4C2
:1040C00040E061E081E00E94CC180E948F1B00E17B
:1040D00028E54CED50E0B70184E190E00E94781DA6
:1040E0000E947D1B6BE170E080E090E00E94EA1688
:1040F000103F31F46AEF70E080E090E00E94EA1631
:10410000FFEFEF1AFF0A29E1E216F10489F66EEEDD
:1041100072E080E090E00E94EA1661E089E00E948F
:10412000261682E090E00E941836882359F061E05C
:1041300085E00E94891661E08DE00E94891681E089
:1041400080937902809164008E7F8093640087EC75
:1041500080937C0080E280937B0062E070E080E0EE
:1041600090E00E94EA1680917A00806480937A0041
:1041700080917A0086FDFCCF009178001091790043
:10418000009510958EE580937C0062E070E080E001
:1041900090E00E94EA1680917A00806480937A0011
:1041A00080917A0086FDFCCFE0907800F090790055
:1041B0000E94C5169B01AC01209530954095509505
:1041C000E094F094E09ED001E19EB00DF09EB00D21
:1041D00011240E944D366B017C010E94C5166C0DA6
:1041E0007D1D8E1D9F1D611571058105910511F0C5
:1041F0000E9404318091640081608093640081E2B8
:104200008093130700E010E082E2C82ED12C9EE2DA
:10421000E92EF12C0E948F1BD0921F07C0921E071F
:10422000C8010897909321078093200763EA71E003
:104230008AE097E00E940E0DF0921F07E0921E07A1
:1042400010932107009320076EEA71E08AE097E05F
:104250000E940E0D64E170E080E090E00E94EA169A
:104260000E947D1B0E5F1F4F0432110599F668EE08
:1042700073E080E090E00E94EA168AE097E0909375
:1042800027078093260789E097E09093290780937A
:10429000280710925B0710925C0710925D0710923E
:1042A0005E0710925F0710926007109261071092EC
:1042B000620781E08093630724E833E03093650769
:1042C00020936407109266071092670710926807A0
:1042D0001092690780936A0710926B072FB7F894C2
:1042E0008091750290917602A0917702B091780248
:1042F0002FBF20911C07222391F020911407382F03
:10430000321B30931D0720911107309112072F5F48
:104310003F4F309312072093110710921C074091D2
:1043200018075091190760911A0770911B0784179D
:104330009507A607B70748F4481B423010F40C94C1
:10434000852C0E94E5180C94852C20911307AC0154
:10435000BD01420F511D611D711D409318075093FF
:10436000190760931A0770931B07809314079093A3
:104370001507A0931607B093170711E010931C07B9
:104380000E948F1B109221071092200710921F0786
:1043900010921E07E0912A078E2FEE0F990BAA0BA1
:1043A000BB0BFC013197E930F10510F00C94512A58
:1043B000EA5AFF4F0C94412D88E2EDE1F1E0DE0175
:1043C000119601900D928A95E1F780E090E00E94AD
:1043D00049148031A9F138F4843009F474C088306C
:1043E00009F440C091C0803479F08038F9F080320F
:1043F00009F08AC08091570790915807019797FF5D
:104400000BC084E090E008C0809157079091580756
:104410000196853091052CF49093580780935707A7
:1044200073C010925807109257076EC080915907B9
:1044300090915A07019797FF0BC083E090E008C066
:104440008091590790915A070196843091052CF478
:1044500090935A078093590757C010925A071092A9
:10446000590752C08091590790915A0725E0289F1B
:10447000F001299FF00D1124809157079091580762
:10448000E80FF91FEE0FFF1F41E050E04C0F5D1FDA
:10449000E40FF51F0190F081E02D6BE277E086E2FA
:1044A00097E0099580912F0790913007439760F12D
:1044B0008BE297E00E941D1565EB71E08BE297E0BF
:1044C0000E94280B21C069E372E081E397E00E941B
:1044D0005C0A882311F40C948F2C69E372E083E466
:1044E00097E00E945C0A81110AC063EB71E083E4EB
:1044F00097E00E945C0A882311F40C948F2C809121
:104500002A07819580932A07809126079091270793
:104510000DE026E745E050E065E070E004960E947B
:10452000321CA0912607B091270788E090E05596AD
:104530009C938E93549757969C938E935697ED9198
:10454000FC91119740912F075091300760912B07F4
:1045500070912C070280F381E02DCD01099584E153
:10456000E5E4F1E0DE01119601900D928A95E1F704
:10457000CE0101967C0115E1A12EB12C350141E05F
:10458000641A71084701BAE0CB2ED12CD4016D9189
:104590004D01A0912607B0912707C6016F3561F440
:1045A000019655969C938E9354975796BC92AE92D3
:1045B000569767EB71E00DC0633279F40496559617
:1045C0009C938E9354975796BC92AE9256976BEBF2
:1045D00071E0CD010E940E0D11C0079655969C9377
:1045E0008E9354975796BC92AE925697ED91FC914C
:1045F00011970190F081E02DCD010995809126075A
:104600009091270709E024E1A301B60104960E94D6
:10461000321CB6E1CB0ED11CE8E7CE16D10409F06E
:10462000B5CFFBE0AF0EB11C25E0E20EF11C31E48A
:10463000A316B10409F0A2CF8091590790915A07AF
:104640002BE0289FA001299F500D11244D5E5F4F44
:10465000809157079091580726E1289FB001299F24
:10466000700D1124675F7F4F809126079091270777
:104670000BE00C94CA2B80912B07811114C0809100
:104680002E0790912F07019690932F0780932E0766
:1046900020912C0730912D078217930724F0109258
:1046A0002F0710922E0780E090E00E944914883076
:1046B00041F140F4843079F580912A078195809307
:1046C0002A0729C0803171F0803829F580912C07A4
:1046D00090912D0705968D3251E095076CF08CE294
:1046E00091E00AC080912C0790912D07059718162C
:1046F000190614F085E090E090932D0780932C0725
:104700000AC090912B0781E0892780932B07109294
:104710002F0710922E0720912B078091260790914A
:104720002707222341F17C01A4E0EA0EF11CC12CF1
:10473000D12C01E020E440E050E0B601C7010E9426
:104740007E1ABFEFCB1ADB0AE0E8CE16D10489F758
:10475000E0912607F0912707108E81E0818F87E096
:1047600090E0958B848B8CE190E0978B868B6EEB41
:1047700071E0CF0159C020912C0730912D0737FFF0
:1047800002C02F5F3F4F3595279540912E075091DE
:104790002F072417350744F57C01F4E0EF0EF11CD8
:1047A000C12CD12C01E020E440E050E0B601C7016B
:1047B0000E947E1A2FEFC21AD20A30E8C316D10423
:1047C00089F7E0912607F0912707108E81E0818F0D
:1047D00086E190E0958B848B88E190E0978B868BC7
:1047E00062ED71E0CF010BC026E130E0FC01358BBA
:1047F000248B28E130E0378B268B62ED71E00E943C
:104800000E0D809126079091270723E130E0DC010F
:1048100055963C932E93549720E230E057963C9364
:104820002E93569761EE71E00E940E0DE0912607DF
:10483000F091270781E0808F118EAFC780E090E074
:104840000E944914843029F480912A07819580932D
:104850002A07809126079091270700E110E0FC01CC
:10486000158B048B178B068B61EF71E00E940E0D88
:104870008091260790912707DC0155961C930E9393
:10488000549728E130E057963C932E93569762E078
:1048900072E00E940E0D8091260790912707FC017F
:1048A000158B048B20E230E0378B268B63E172E0BE
:1048B0000E940E0D8091260790912707DC015596E6
:1048C0001C930E93549728E230E057963C932E9316
:1048D000569764E272E0E2C580E090E00E944914DD
:1048E000843049F08830E1F59091630781E08927B1
:1048F0008093630735C080916307882361F18091BD
:104900005B0790915C07A0915D07B0915E07892BD2
:104910008A2B8B2B79F420E030E0A90160915F07AE
:104920007091600780916107909162070E948B32BD
:10493000882389F010925B0710925C0710925D0744
:1049400010925E0710925F07109260071092610745
:104950001092620705C080912A07819580932A07EB
:10496000C0905B07D0905C07E0905D07F0905E0719
:10497000C701B60120E13EE040E050E00E949736DA
:10498000122F20E13EE0129FC001139F900D1124D1
:10499000092E000CAA0BBB0BA7019601281B390B93
:1049A0004A0B5B0BCA01B9012CE330E040E050E058
:1049B0000E949736B22E022F30E1139FC0181124A7
:1049C0004CE3B49EC01811248091260790912707CC
:1049D0002FE130E0DC0155963C932E9354972CE167
:1049E00030E057963C932E9356971A3010F40E945D
:1049F000761C612F80912607909127070E946F1CDB
:104A000065E372E080912607909127070E940E0DC2
:104A10000A3030F480912607909127070E94761C77
:104A20006B2D80912607909127070E946F1C65E3EC
:104A300072E080912607909127070E940E0DB9E041
:104A4000BC1530F080912607909127070E94761CB4
:104A50006C2D80912607909127070E946F1C65E3BB
:104A600072E080912607909127070E940E0D20E0AA
:104A700030E040E251E460915F07709160078091FF
:104A80006107909162070E948B3287FF06C0809178
:104A90002607909127070E94761C60915F0770910E
:104AA000600780916107909162070E943A2E809181
:104AB0002607909127070E946F1C6FC680E090E048
:104AC0000E944914803191F158F48430B9F1883052
:104AD000D1F590916A0781E0892780936A0733C0F6
:104AE000803481F08038E1F0803269F580916A0786
:104AF000882349F180916B078F5F863070F01092A8
:104B00006B0721C080916A078823E9F080916B07C9
:104B1000811102C085E001C0815080936B0713C0F2
:104B200080916A07882379F081E005C080916A0747
:104B3000882349F08FEF0E949E1B05C080912A07B1
:104B4000819580932A072091640730916507C901F8
:104B500060E17EE00E942D2DE62E40EF51EF649F34
:104B6000C001659F900D1124820F931F6CE370E0CC
:104B70000E942D2D162F062F822FE0EFEE9E800D26
:104B80001124F82EFCE36F9FF01811248091260762
:104B9000909127072FE130E0DC0155963C932E934E
:104BA00054972CE130E057963C932E935697B9E0FA
:104BB000BE1510F00E94761C6E2D809126079091F4
:104BC00027070E946F1C65E372E080912607909191
:104BD00027070E940E0D0A3030F48091260790912D
:104BE00027070E94761C612F809126079091270746
:104BF0000E946F1C65E372E0809126079091270761
:104C00000E940E0DE9E0EF1530F08091260790919B
:104C100027070E94761C6F2D809126079091270709
:104C20000E946F1C65E372E0809126079091270730
:104C30000E940E0D20E030E040E251E460916607F2
:104C40007091670780916807909169070E948B3285
:104C500087FF06C080912607909127070E94761C47
:104C60006091660770916707809168079091690766
:104C70000E943A2E80912607909127070E946F1C70
:104C800080916A07882309F488C530916B072AEF61
:104C90002303B0011124CB01885B9F4F369523037A
:104CA000B0011124680F791F809126079091270782
:104CB00009E027E04BE150E06DC580E090E00E9404
:104CC0004914C0902B07D0902C07E0902D07F0904E
:104CD0002E07803269F038F4843009F492C08031B4
:104CE00009F462C0B5C08034A1F08038A1F1B0C031
:104CF000F1E0CF1AD108E108F10822EBC21627E053
:104D0000D206E104F10488F482EB97E0A0E0B0E081
:104D100019C03FEFC31AD30AE30AF30A48E9C416DD
:104D200048E0D406E104F10448F4C0922B07D09285
:104D30002C07E0922D07F0922E078AC087E998E0B1
:104D4000A0E0B0E080932B0790932C07A0932D0751
:104D5000B0932E077DC080912F078F5F80932F0720
:104D60008D3008F475C05FEFC51AD50AE50AF50A5B
:104D7000C0922B07D0922C07E0922D07F0922E07BD
:104D800088E9C81688E0D806E104F104A0F187E9B3
:104D900098E0A0E0B0E080932B0790932C07A093BD
:104DA0002D07B0932E0729C080912F078150809343
:104DB0002F0781114DC091E0C91AD108E108F1080F
:104DC000C0922B07D0922C07E0922D07F0922E076D
:104DD000A2EBCA16A7E0DA06E104F10470F482EB54
:104DE00097E0A0E0B0E080932B0790932C07A0936E
:104DF0002D07B0932E0781E001C08CE080932F0730
:104E000027C06C2D88E592E00E94541B99278F2DB6
:104E10007E2D6D2D89E592E00E94541BB7018827F5
:104E200099278AE592E00E94541B6F2D77278827E7
:104E300099278BE592E00E94541B60912F078CE527
:104E400092E00E94541B80912A07819580932A0743
:104E500010912F07C0902B07D0902C07E0902D07C2
:104E6000F0902E07123041F5C701B60124E630E07C
:104E700040E050E00E949736672B682B692B71F059
:104E8000C701B60120E931E040E050E00E949736CA
:104E900001E0672B682B692B69F00BC001E0D7019B
:104EA000C60183709927AA27BB27892B8A2B8B2BB6
:104EB00009F000E0045E0FC0812F90E0019767E0E9
:104EC00070E00E942D2D62E070E00E942D2D0FE118
:104ED000081B133060F426013701B1E04B1A51086A
:104EE00061087108C9A6DAA6EBA6FCA60CC0A7014A
:104EF0009601225031094109510929A73AA74BA728
:104F00005CA726013701C301B20120E931E040E08E
:104F100050E00E949736D301C20162E0B695A79592
:104F2000979587956A95D1F749015A01880E991E80
:104F3000AA1EBB1EC301B20124E630E040E050E0EF
:104F40000E949736821A930AA40AB50A37E1139F82
:104F5000C001112469E070E00E942D2D89A59AA559
:104F6000ABA5BCA50196A11DB11D680F711D6C5F9D
:104F70007F4FCB01770FAA0BBB0BBC01CD01680D96
:104F8000791D8A1D9B1D27E030E040E050E00E9423
:104F90009736162F809126079091270728E230E058
:104FA000DC0155963C932E93549757961C921E9273
:104FB00056972AE0B701A6010E94C50C67E372E08C
:104FC00080912607909127070E940E0D60912F0770
:104FD00080912607909127070E946F1C80912607D9
:104FE0009091270724E030E0FC01358B248B28E0EA
:104FF00030E0378B268B6AE372E00E940E0DF12CB5
:1050000041E0E0912607F091270722E1129FC001BD
:1050100011242F2D30E04A3010F40A9601C0049676
:10502000958B848B2E5F3F4FA3E0220F331FAA95F1
:10503000E1F7378B268B642FCF0127964FAF279749
:105040000E946F1C1F5F27964FAD2797173011F4F2
:10505000F39410E04F5F0417A0F69FC31982CE01AE
:1050600001960E94491424968FAF24970E94AF188E
:105070008C7F8C3FA1F480912A07819580932A0729
:1050800009E511E0D8016C918DEF96E00E94E017E0
:105090000B5F1F4FB1E007371B07A1F77EC3E9E5A0
:1050A000F1E0F9AFE8AF1DAA1CAA2CA93DA9275A27
:1050B0003E4F3FAB2EABD9011196BC91B9AB0E94CC
:1050C000AF1839A98323831304C01EAE31E039A77A
:1050D00003C031E03EAF19A6AEA9BFA91396BC919B
:1050E000BAAFEEA9FFA9F481FBAFA0902607B0905C
:1050F00027074F2E512C6B2E712C39A9383019F0FF
:10510000343009F0E5C0A201415051095EA74DA716
:10511000130151E0251A310884E0A80EB11C4201A8
:105120009AE0891A910809A523E1A401B101C501FA
:105130000E947E1AC9A4E12CF12C03E029E04DA5C0
:105140005EA5B101C5010E94AE1AE0902607F0905D
:105150002707A4E0EA0EF11CA201485F5F4F21E09F
:10516000B101C7010E94621921E0A401B101C70188
:105170000E946219B301685F7F4F21E04DA55EA5D3
:10518000C7010E946219B3016A50710921E04DA55F
:105190005EA5C7010E9462192301B2E04B1A5108B3
:1051A000A12CB12CE1E0F0E0F8ABEFA779E0C72E3D
:1051B000D12C2EEE3FEF3BAB2AAB08EF1FEF5AADE1
:1051C000452F50E021965FAF4EAF21979BAD892FC1
:1051D00090E023969FAF8EAF2397841B950B269666
:1051E0009FAF8EAF269795012F5F3F4F3DAF2CAFFE
:1051F0004FA558A94E5F5F4F58AB4FA7040F151F1F
:1052000021966EAC7FAC21976A0C7B1C21E08DA4AB
:105210009EA48C0C9D1CA401B301C7010E946219BD
:1052200021E0A401B201C7010E94621921E08DA40E
:105230009EA48C189D08A401B301C7010E946219A5
:1052400021E0A401B201C7010E94621923968EAD2C
:105250009FAD2397A80EB91E21E0A50131016C0C6A
:105260007D1CB301C7010E94621921E0A501510113
:10527000AC18BD08B501C7010E94621921E026964D
:105280008EAC9FAC2697840C951CA401B301C7017A
:105290000E94621921E0A401B501C7010E946219B0
:1052A000ACADBDADAC15BD050CF0A0C017FD0AC07E
:1052B000A1E0CA1AD108EAA9FBA93296FBABEAAB76
:1052C0000E0F1F1FF1E04F1A5108ACACBDAC8BCFD5
:1052D000F2013997F8ABEFA79301295031093BABA5
:1052E0002AAB34E0A30EB11CA301465051095EA7BE
:1052F0004DA76DE0E62EF12C630157E0C50ED11CE1
:10530000B6016E197F0981E0E81AF10841F009A59C
:1053100022E14FA558A9C5010E947E1AF1CF420192
:1053200096E0891A91081301A5E02A0E311CC9A440
:105330005BE0E52EF12C01E023E0A401B101C50101
:105340000E94AE1AC9A402E023E0A4016DA57EA5C7
:10535000C5010E94AE1AE0902607F0902707B4E03E
:10536000EB0EF11CEFA5F8A9E034F10530F44CE0A8
:10537000BF018DA59EA50E94FD1BB201685F7F4FF6
:10538000603471052CF44CE08DA59EA50E94FD1B98
:1053900001E02CE0A4016AA97BA9C7010E947E1A42
:1053A000B301685F7F4F2CE0A401C7010E947E1A01
:1053B00021E0A4016DA57EA5C7010E947C1C22E00E
:1053C000A401B101C7010E947C1C6201F5E0CF0E6F
:1053D000D11C24E0A601B101C7010E947C1C28E079
:1053E000A6016DA57EA5C7010E947C1CAEA9BFA920
:1053F00012962C913AAD632F70E063507109809141
:105400002607909127076038710574F43BAD432F50
:1054100050E0445051094034510534F4CC24C39435
:10542000E9A40EAD0E94891989A924963FAD24975D
:10543000832341F0A8ADB9AD6C918DEF96E00E9449
:1054400029180BC0898139A9832339F0A8ADB9ADDA
:105450006C918DEF96E00E94E017ECA9FDA93596BE
:10546000FDABECAB28AD39AD2B5F3F4F39AF28AF6B
:105470007E9709F01ACE8091260790912707E1E0E8
:10548000F0E0DC015596FC93EE93549728E330E06E
:1054900057963C932E9356976FE472E00E940E0D40
:1054A0007CC180E090E00E94491490912A078032EC
:1054B00059F028F4883049F1803101F10CC1803471
:1054C00059F08038A1F007C181E0890F80932A0745
:1054D000811101C189EF08C08FEF890F80932A07DE
:1054E000883F09F0F8C08FEF80932A07F4C083E06B
:1054F000890F80932A0787FFEDCFEDC08DEF890FCD
:1055000080932A07893F7CF3E6C0892F8195809399
:105510002A07833009F468C094F48130F9F08230AE
:1055200009F03BC110932B078CE390E090932D077B
:1055300080932C0710922F0710922E072EC18630D1
:1055400009F467C0873009F028C1E0912807F0917D
:1055500029078081817C8E7F80831FC180E3EBE2FD
:10556000F7E0DF011D928A95E9F763EB71E0CF0167
:105570000E94280B69E372E083E497E00E94280B05
:10558000BC018DE397E00E943F0BBC0187E397E0ED
:105590000E943F0BBC0181E397E00E943F0B1092F9
:1055A000510710925207109253071092540710920D
:1055B0004D0710924E0710924F071092500710920D
:1055C000490710924A0710924B0710924C0710920D
:1055D00056071092550710925A07109259071092C9
:1055E000580710925707D9C010922F071092300712
:1055F000109231071092320710922B0710922C074D
:1056000010922D0710922E07109233071092340734
:10561000C4C088E592E00E94561B182F89E592E0ED
:105620000E94561BC82E8AE592E00E94561B082F46
:105630008BE592E00E94561BD12CE12CF12CFE2C24
:10564000ED2CDC2CCC24402F50E060E070E0BA015F
:1056500055274427C40ED51EE61EF71EC10ED11CC9
:10566000E11CF11C90E0A0E0B0E0B82FAA27992738
:105670008827C80ED91EEA1EFB1EC0922B07D092A7
:105680002C07E0922D07F0922E078CE592E00E9405
:10569000561B80932F07B1E0CB1AD108E108F1081F
:1056A000EEEFCE16EFEFDE06EE06FE0660F021EE20
:1056B00037E040E050E020932B0730932C074093D5
:1056C0002D0750932E0781508E3F08F466C081E06D
:1056D00080932F0762C082E296E09A83898382E2F8
:1056E00092E09C838B83E0902A07E1940E2C000CBF
:1056F000FF0831E0E31AF108C70166E070E00E949C
:105700002D2D6B01FB01EE0FFF1FEC0FFD1F4181E3
:10571000528100E420E860E070E080E090E00E94C8
:10572000781DC114D10459F408E028E042E152E0A8
:1057300068E370E088E790E00E94781D0DC008E003
:1057400028E04AE152E060E070E088E790E00E94E3
:10575000781DCA94CD2841F7C70163E070E00E942C
:105760002D2D282FCB0162E070E00E942D2DAC0181
:10577000552785E0440F551F8A95E1F788E2289F59
:10578000B0011124685F7F4F809126079091270711
:1057900000E220E204960E94321C80916307882375
:1057A000C9F080916A078111A6C025E535E545E578
:1057B00050E4609166077091670780916807909147
:1057C00069070E945B2D6B017C01009164071091B9
:1057D00065075CC025E535E545E550E460915F0768
:1057E0007091600780916107909162070E945C2D23
:1057F0004B015C01C0905B07D0905C07E0905D07B7
:10580000F0905E0720E030E048EC52E4C501B401BE
:105810000E94692E87FD1AC020E030E048EC52E477
:10582000C501B4010E945B2D4B015C019FEFC91AB9
:10583000D90AE90AF90AA0E4CA16AEE7DA06E104D1
:10584000F10400F3C12CD12C7601DCCF80925F07EC
:1058500090926007A0926107B0926207C0925B07C6
:10586000D0925C07E0925D07F0925E079ACF101627
:105870001106B4F420E030E046EC52E4C701B60172
:105880000E945C2D6B017C010150110920E030E089
:10589000A901C701B6010E948B32181644F71FC038
:1058A00010936507009364071092660710926707CC
:1058B000109268071092690781E080936A0782E07E
:1058C00080932A078CE390E090932D0780932C0718
:1058D00010922F0710922E0710922B070CC0C09227
:1058E0006607D0926707E0926807F0926907109305
:1058F00065070093640740E054E06DEA72E08DEACA
:1059000096E00E94AF0C0E947D1B80E090E0892B06
:1059100011F40C946E210E9400000C946E218BE215
:1059200097E00E941D150C9484221092B0061092EC
:10593000AF0688EE93E0A0E0B0E08093B1069093CC
:10594000B206A093B306B093B40687E891E09093B3
:10595000AE068093AD068FEF9FEF9093BA068093CB
:10596000B906109200071092FF0687E991E0909324
:10597000FE068093FD0680917207811113C010927C
:105980006D0710926C078FE390E190936F078093FF
:105990006E078FE290E0909371078093700781E02B
:1059A000809372070E946E17FC01A385B48510973F
:1059B00029F48CE697E0948783870BC08D919C91A6
:1059C0001197009711F0DC01F9CF8CE697E08D93E9
:1059D0009C93258536858091700790917107820F81
:1059E000931F968785878FEF80932A0710920D0764
:1059F00010920C0710920F071092100780E180930D
:105A000013071092120710921107109218071092A4
:105A1000190710921A0710921B0710921C078FE9A2
:105A200091E090930B0780930A0710921F07109242
:105A30001E07109221071092200781E08093220711
:105A4000109223078093240710922507809109075D
:105A5000817C8E7F80930907089597FB072E16F4AB
:105A6000009407D077FD09D00E94472D07FC05D090
:105A70003EF4909581959F4F0895709561957F4F65
:105A80000895EE0FFF1F0590F491E02D0994AA1BD5
:105A9000BB1B51E107C0AA1FBB1FA617B70710F019
:105AA000A61BB70B881F991F5A95A9F7809590954B
:105AB000BC01CD0108955058BB27AA270E94732D21
:105AC0000C94DE350E94D03538F00E94D73520F096
:105AD00039F49F3F19F426F40C94CD350EF4E0957B
:105AE000E7FB0C94C735E92F0E94EF3558F3BA173E
:105AF000620773078407950720F079F4A6F50C94E4
:105B000011360EF4E0950B2EBA2FA02D0B01B90122
:105B100090010C01CA01A0011124FF27591B99F023
:105B2000593F50F4503E68F11A16F040A22F232F2F
:105B3000342F4427585FF3CF469537952795A7957F
:105B4000F0405395C9F77EF41F16BA0B620B730B26
:105B5000840BBAF09150A1F0FF0FBB1F661F771F97
:105B6000881FC2F70EC0BA0F621F731F841F48F44C
:105B7000879577956795B795F7959E3F08F0B0CFD5
:105B80009395880F08F09927EE0F979587950895BC
:105B90000E94DC2D0C94DE350E94D73558F00E940F
:105BA000D03540F029F45F3F29F00C94C7355111EE
:105BB0000C9412360C94CD350E94EF3568F399237E
:105BC000B1F3552391F3951B550BBB27AA276217F9
:105BD0007307840738F09F5F5F4F220F331F441F06
:105BE000AA1FA9F335D00E2E3AF0E0E832D091503A
:105BF0005040E695001CCAF72BD0FE2F29D0660F27
:105C0000771F881FBB1F261737074807AB07B0E869
:105C100009F0BB0B802DBF01FF2793585F4F3AF06F
:105C20009E3F510578F00C94C7350C9412365F3FB7
:105C3000E4F3983ED4F3869577956795B795F795F5
:105C40009F5FC9F7880F911D9695879597F90895DD
:105C5000E1E0660F771F881FBB1F62177307840779
:105C6000BA0720F0621B730B840BBA0BEE1F88F788
:105C7000E09508950E94F73588F09F5798F0B92F66
:105C80009927B751B0F0E1F0660F771F881F991F71
:105C90001AF0BA95C9F714C0B13091F00E941136CC
:105CA000B1E008950C941136672F782F8827B85FDC
:105CB00039F0B93FCCF3869577956795B395D9F7C9
:105CC0003EF490958095709561957F4F8F4F9F4FD3
:105CD00008950E94CD3208F48FEF0895CF93DF939B
:105CE0008230910510F482E090E0E0917C07F09121
