:100000000C94D0050C94F8050C94F8050C94F805A4
:100010000C94F8050C94F8050C94F8050C94F8056C
:100020000C94F8050C94F8050C9490080C940209B3
:100030000C94F8050C94F8050C94F8050C94F8054C
:100040000C94F8050C94F8050C94F8050C94F8053C
:100050000C94F8050C94F8050C94F8050C94C90C54
:100060000C94F8050C94F8050C94F8050C94F8051C
:100070000C94F8050C94F8050C94F8050C94F8050C
:100080000C94F8050C94F8050C94F8050C94F805FC
:100090000C94F8050C94F8050C94F8050C94F805EC
:1000A0000C94F8050C94F8050C94F8056A0B6D0B8C
:1000B0005C0B600B640B8E0B8E0B8E0B710B750B38
:1000C000790B7F0B830B8E0B890B00000000003E29
:1000D0005B4F5B3E3E6B4F6B3E1C3E7C3E1C183CB8
:1000E0007E3C181C577D571C1C5E7F5E1C00183C14
:1000F0001800FFE7C3E7FF0018241800FFE7DBE75D
:10010000FF30483A060E2629792926407F05050743
:10011000407F05253F5A3CE73C5A7F3E1C1C08089F
:100120001C1C3E7F14227F22145F5F005F5F060964
:100130007F017F006689956A606060606094A2FFBD
:10014000A29408047E040810207E201008082A1CAF
:1001500008081C2A08081E101010100C1E0C1E0C7B
:1001600030383E3830060E3E0E060000000000001B
:10017000005F00000007000700147F147F14242A8A
:100180007F2A12231308646236495620500008075C
:100190000300001C2241000041221C002A1C7F1C7D
:1001A0002A08083E0808008070300008080808087F
:1001B000000060600020100804023E5149453E00E6
:1001C000427F400072494949462141494D33181444
:1001D000127F1027454545393C4A49493141211193
:1001E00009073649494936464949291E0000140085
:1001F00000004034000000081422411414141414A8
:10020000004122140802015909063E415D594E7C05
:100210001211127C7F494949363E414141227F41BA
:1002200041413E7F494949417F090909013E414118
:1002300051737F0808087F00417F41002040413F03
:10024000017F081422417F404040407F021C027F12
:100250007F0408107F3E4141413E7F090909063E67
:100260004151215E7F091929462649494932030136
:100270007F01033F4040403F1F2040201F3F403848
:10028000403F631408146303047804036159494D23
:1002900043007F4141410204081020004141417F59
:1002A00004020102044040404040000307080020CF
:1002B000545478407F2844443838444444283844CF
:1002C00044287F385454541800087E090218A4A406
:1002D0009C787F0804047800447D40002040403D25
:1002E000007F1028440000417F40007C047804789F
:1002F0007C080404783844444438FC182424181832
:10030000242418FC7C08040408485454542404048D
:100310003F44243C4040207C1C2040201C3C40307A
:10032000403C44281028444C9090907C4464544CA9
:100330004400083641000000770000004136080004
:1003400002010204023C2623263C1EA1A161123AAE
:100350004040207A385454555921555579412154FB
:10036000547841215554784020545579400C1E5200
:1003700072123955555559395454545939555454A4
:10038000580000457C410002457D420001457C400B
:10039000F0292429F0F0282528F07C545545002028
:1003A00054547C547C0A097F4932494949323248C5
:1003B000484832324A4848303A4141217A3A42402C
:1003C0002078009DA0A07D39444444393D40404000
:1003D0003D3C24FF2424487E4943662B2FFC2F2BD1
:1003E000FF0929F620C0887E090320545479410072
:1003F00000447D413048484A32384040227A007AF1
:100400000A0A727D0D19317D2629292F28262929CE
:10041000292630484D4020380808080808080808F0
:10042000382F10C8ACBA2F102834FA00007B000017
:1004300008142A142222142A14089500220095AACE
:10044000005500AAAA55AA55AA000000FF001010E6
:1004500010FF00141414FF001010FF00FF1010F024
:1004600010F0141414FC001414F700FF0000FF0037
:10047000FF1414F404FC141417101F10101F101F85
:100480001414141F00101010F0000000001F1010B2
:1004900010101F10101010F010000000FF101010AE
:1004A000101010101010FF10000000FF140000FFCB
:1004B00000FF00001F10170000FC04F414141710B4
:1004C000171414F404F40000FF00F71414141414A7
:1004D0001414F700F7141414171410101F101F141D
:1004E0001414F4141010F010F000001F101F00007E
:1004F000001F14000000FC140000F010F01010FFAA
:1005000010FF141414FF141010101F00000000F04E
:1005100010FFFFFFFFFFF0F0F0F0F0FFFFFF000023
:10052000000000FFFF0F0F0F0F0F38444438447CCA
:100530002A2A3E147E02020606027E027E026355CD
:100540004941633844443C04407E201E2006027E1C
:10055000020299A5E7A5991C2A492A1C4C7201722E
:100560004C304A4D4D303048784830BC625A463D98
:100570003E494949007E0101017E2A2A2A2A2A444D
:10058000445F444440514A444040444A5140000082
:10059000FF0103E080FF000008086B6B083612368D
:1005A0002436060F090F060000181800000010106E
:1005B000003040FF0101001F01011E00191D17122C
:1005C000003C3C3C3C000000000000000002000930
:1005D0000F0000030401000C0000000000000000F8
:1005E000000000000000000000080B0002020201F1
:1005F00000090400000102020000052400100105AA
:1006000024010101042402060524060001070581D6
:100610000310004009040100020A0000000705025F
:100620000240000007058302400000040309044162
:10063000726475696E6F204C4C4300417264756240
:100640006F79001201000200000040412336800053
:10065000010102030112010002EF020140412336B1
:1006600080000101020301F0F89C8E8783878E9C35
:10067000F8F00000FEFF0303030303070EFCF8007D
:1006800000FEFF0303030303070EFCF80000FFFF57
:1006900000000000000000FFFF0000FEFF838383D6
:1006A0008383C7EE7C380000F8FC0E0703030307C2
:1006B0000EFCF800003F7FE0C08080C0E07F3FFF7D
:1006C000FF01010101010101FFFF0000FFFF0C0C10
:1006D0000C0C1C3E77E3C100007FFFC0C0C0C0C04F
:1006E000E0703F1F00001F3F70E0C0C0C0E0703FDF
:1006F0001F00007FFFC1C1C1C1C1E3773E1C0000E4
:100700001F3F70E0C0C0C0E0703F1F00000000004D
:1007100001FFFF0100000000000000240027002A64
:10072000002D003000D5F08D14A1C881CFD9F1AFD4
:1007300020000408020110408040102040804080CA
:100740000802040180402010020110801020404067
:100750002000000000250028002B002E003100049E
:100760000404040403040502020202040302020258
:100770000206060606060604040202020404140227
:10078000130212021502070208020A020A010B02F2
:100790000B010902090104010C010601000000001F
:1007A000000000000000F804F20A0A0A0A0A0A0A15
:1007B0000A0A0A0A0A0A0A0A0A0A0A0A0A0A0A0A99
:1007C0000AF204F8000000000000000000008000B1
:1007D00000000000063C80404020202420204040B3
:1007E000488400006060301000000000000000003D
:1007F00000000000000000000080402010080808F1
:100800000484C4C28282C2C4840408080810204040
:100810008000000000000000000000000000000058
:10082000000000000000FF00F805054545F5F5450E
:10083000450505F90101F9050545454545454505C8
:1008400005F800FF000000000000000000000001AB
:100850000002007C8201000000E81C0888780E007D
:10086000000041C23C000020000000000000000029
:10087000000000000000C0380700000000003C62DB
:10088000C1C1FFFF8181FFFF0103060F00000000CF
:10089000000738C000000000000000000000000059
:1008A000000000000000FF00E3141454D49515D498
:1008B000541414E30000E3141414145454141414C2
:1008C00014E300FF00000000000000000000000032
:1008D000000000000001020202E310884F2C249463
:1008E0000402010002060400000000FE00000000F7
:1008F000000000000000031CE00000000000E0C059
:100900008000FFFF0303FFFF06068C780000000055
:1009100000E01C03000000000000000000000000D8
:100920000000000000003F404F50505456515356B5
:100930005450504F40404F505051515555515150C7
:10094000504F403F000000000000000000000C106D
:100950002040404040404040404955545249454263
:1009600040404040404040404020100F0000000008
:100970000000000000000000000102040810111037
:10098000212327474343472723211010100804023F
:100990000100000000000000000000000000000056
:1009A00000000000000000006090482810080808BF
:1009B00004040402061E020404040808081028485F
:1009C0009060000000000000000000000000F8043B
:1009D000F21A2A4A0A0A0A0A0A0A0A0A0A0A0A0A1F
:1009E0000A0A0A0A0A0A4A2A1AF204F8000000004F
:1009F000000000000000FC020202020202020202E9
:100A000002020202020202020202020202020202C6
:100A1000020202FC000000000000000000000000D4
:100A2000000000000000C0B8878000000000000047
:100A300000000080C0E0F0F8783C0E0703000000E2
:100A40000007B8C000000000000000000000FF0028
:100A50000110F8F80000F8F888888800C000F0F865
:100A600008F8F000F0F808F8F00100FF00000000BE
:100A7000000000000000FF0101010101010101016E
:100A80003129E50505050505FD010101010101010A
:100A9000010101FF00000000000000000000000054
:100AA000000000000000031DE00000000000000046
:100AB000000000030303010000000000000000002C
:100AC00001E11D0300000000000000000000FF0025
:100AD00000407F7F40003878407F3F000C003F7F20
:100AE000407F3F003F7F407F3F0000FF000000004D
:100AF000000000000000FF000000000000000000F7
:100B00000000FF0000000000FF00000000000000E7
:100B1000000000FF000000000000000000000000D6
:100B20000000000000000000000102040810101086
:100B3000202020407860402020201010100804025F
:100B400001000000000000000000000000001F2065
:100B50004E58545250505050505050505050505089
:100B60005050505050505254584E201F000000001A
:100B70000000000000007F404040404040404040B6
:100B8000585457505050505057545840404040408F
:100B90004040407F00000000000000000000240FE3
:100BA00011241FBECFEFDAE0DEBFCDBF25E0AAE300
:100BB000B1E001C01D92AE3CB207E1F711E0A0E048
:100BC000B1E0E2E4F6E202C005900D92AA33B1076B
:100BD000D9F715E0C0EDD5E004C02197FE010E94D1
:100BE0003F12CF3CD107C9F70E94550F0C941F1339
:100BF0000C9400004091420150914301209140012A
:100C00003091410142175307B4F49091E800957078
:100C1000E1F39091E80092FD19C08093F10080917A
:100C200042019091430101968F739927892B19F402
:100C30008EEF8093E80080914201909143010196EC
:100C4000909343018093420181E0089580E00895EC
:100C5000CF92DF92EF92FF920F931F93CF93DF9388
:100C60001F92CDB7DEB7182F062FE42E862F880FE0
:100C70008E5F99830E94FA0583E00E94FA05F12EA7
:100C8000C12E9981D92E8C2D8F19801798F4F601D9
:100C9000E7FE02C0849101C080810E94FA05182FEE
:100CA00080E00E94FA058123FFEFCF1ADF0A81114D
:100CB000EACF01C081E00F90DF91CF911F910F919A
:100CC000FF90EF90DF90CF900895DF92EF92FF9228
:100CD0000F931F93CF93DF93D82E8A017B01E40EED
:100CE000F51EEB01CE15DF0571F0D7FE03C0FE0146
:100CF000849101C088810E94FA0521968111F2CF6A
:100D00008FEF9FEF01C0C801DF91CF911F910F912D
:100D1000FF90EF90DF900895615030F02091F10046
:100D2000FC0120830196F8CF289884E68093520135
:100D30000895CF92DF92EF92FF920F931F93CF937C
:100D4000DF936C017A018B01C0E0D0E0CE15DF05A6
:100D500089F0D8016D918D01D601ED91FC91019042
:100D6000F081E02DC6010995892B11F47E0102C0A6
:100D70002196ECCFC701DF91CF911F910F91FF908A
:100D8000EF90DF90CF900895CF93DF931F92CDB770
:100D9000DEB76983DC01ED91FC910280F381E02DE7
:100DA00041E050E0BE016F5F7F4F09950F90DF91EA
:100DB000CF91089583E08093E9008091F200882329
:100DC00019F08AE38093E8000895FC0184859585F5
:100DD00097FD0BC09FB7F89482E08093E900809163
:100DE000F2009FBF90E0019608959FB7F89482E0CB
:100DF0008093E9008091F2009FBF90E008952F92C8
:100E00003F924F925F926F927F928F929F92AF929A
:100E1000BF92CF92DF92EF92FF920F931F93CF93E7
:100E2000DF9300D000D000D0CDB7DEB7DC016A3050
:100E3000A9F45A962C915A9756968D919C91579752
:100E400008E0209F800D911D112457969C938E934E
:100E5000569755961C921E925497D1C06D3009F446
:100E6000CEC05A96BC905A9759962C90599758963E
:100E70003C90589756962D913C9157973C832B83E5
:100E800054968D919C91559780389105C4F05A964F
:100E90002C915A97422F50E054968D919C915597E2
:100EA00036E0239F800D911D112455969C938E93BF
:100EB00054975B962C915B9721118EC0A0C00B813B
:100EC0001C81003411051CF79C0115E0B19E200D1A
:100ED000311D112412161306D4F68B2C912C2B8164
:100EE0003C8148E0B49E200D311D112412161306DA
:100EF00074F6E5E06E9F2001112460E070E065303B
:100F0000710539F0FB01E40DF51DE653FF4FA49088
:100F100001C0A12CEB80FC8008E0702EA0FC02C078
:100F2000622C01C0632C611009C0231007C0A69475
:100F30007A94E80CF91C7110F1CF45C09C01422F46
:100F4000481B4B15A0F7A701E42FF42FFE19FB1542
:100F5000B8F52038310588F54034510570F5E6952F
:100F6000E695E695CE2ED12C8A01077011271A83BB
:100F70000983F601F695FE2FEE27F795E795E20F28
:100F8000F31F8F010C5A1E4F1E830D83E1E0F0E02A
:100F9000098002C0EE0FFF1F0A94E2F7FA83E9838B
:100FA000662029F0F801D080C980CD2805C0CE2E5A
:100FB000C094F801D080CD20C0824F5F5F4FC4CF76
:100FC0002F5F3F4FBCCF6F5F7F4F880D991D6630FD
:100FD000710509F094CF5BCF6AEF64039001659FC0
:100FE000300D112420583F4F2817390744F4CD0104
:100FF000ED91FC910190F081E02D6AE0099581E08E
:1010000090E026960FB6F894DEBF0FBECDBFDF91FD
:10101000CF911F910F91FF90EF90DF90CF90BF90F5
:10102000AF909F908F907F906F905F904F903F9088
:101030002F9008950E9445120F931F93CF93DF9333
:101040001F92CDB7DEB782E0898342E450E069EEBB
:1010500075E080E80E9465060E94100FDC01129680
:101060000D911C9113970115110569F0D801ED91AF
:10107000FC910280F381E02DBE016F5F7F4FC801BC
:10108000099597FF07C089810F90DF91CF911F913C
:101090000F910895F80100851185E5CF0F931F93F7
:1010A000CF93DF931F92CDB7DEB78C01FC0184850F
:1010B000958597FF0EC0CE0101960E94E60E01971E
:1010C00019F4298130E002C02FEF3FEFF801358796
:1010D0002487F801848595850F90DF91CF911F912A
:1010E0000F910895CF93DF931F92CDB7DEB7FC0128
:1010F0008485958597FD05C02FEF3FEF35872487C1
:101100000BC0CE0101960E94E60E019719F4898169
:1011100090E002C08FEF9FEF0F90DF91CF91089585
:101120001F920F920FB60F9211248F939F9380916D
:10113000E1009091E100937F9093E10083FF0FC065
:101140001092E90091E09093EB001092EC0092E392
:101150009093ED001092530198E09093F00082FF7D
:1011600020C093E09093E9009091F200992319F048
:101170009AE39093E80090914401992339F090917B
:101180004401915090934401992389F19091520127
:10119000992339F0909152019150909352019923E3
:1011A00041F184FF10C08091E2008E7E81608093C7
:1011B000E2008091E1008F7E8093E1008091460102
:1011C0008E7E806111C080FF16C08091E2008E7E0D
:1011D00080618093E2008091E1008E7E8093E10047
:1011E000809146018E7E81608093460104C05D9AA5
:1011F000CDCF289AD6CF9F918F910F900FBE0F9091
:101200001F9018951F920F920FB60F921124CF9234
:10121000DF92EF92FF920F931F932F933F934F9381
:101220005F936F937F938F939F93AF93BF93EF934E
:10123000FF93CF93DF93CDB7DEB76C97DEBFCDBF03
:101240001092E9008091E80083FFFAC168E0CE01C6
:1012500045960E948C0682EF8093E8008D8987FF77
:1012600005C09091E80090FFFCCF03C09EEF9093E3
:10127000E800982F907609F0C6C09E892F89188DB6
:1012800091110CC0803829F4809147018093F100BE
:1012900002C01092F1001092F10047C1422F50E0BD
:1012A000512B913051F4811140C14130510509F069
:1012B0003CC1809147018D7F0BC0933061F4811157
:1012C00034C14130510509F030C18091470182603D
:1012D000809347012AC1953041F48091E80080FF56
:1012E000FCCF20682093E30020C1963009F05FC056
:1012F000EB8CFC8C1092E900109243011092420199
:10130000123091F510924101109240010E941C0888
:1013100099E0BE016F5F7F4FDB01E92F1D92EA95D7
:10132000E9F799831A8391E09E8390EA98879AEF70
:1013300099872091420130914301275F3F4F3C83C1
:101340002B838D831092E900109243011092420189
:10135000F0924101E092400149E050E080E00E94BB
:1013600065060E941C08E1C0F0924101E092400134
:101370000E94100FDC011296ED90FC901397E1147F
:10138000F10409F4C0C0D701ED91FC910480F5810E
:10139000E02DBE016B5E7F4FC7010995009719F0E4
:1013A0000CF0C3C0C6C0F701E084F184E8CF9730E9
:1013B00009F4BFC0983021F481E08093F100B5C0FA
:1013C000993009F0B2C0837009F0B3C0E1E1F1E0F7
:1013D00081E021E036E39081992361F08093E90078
:1013E0002093EB0091919093EC003093ED008F5F90
:1013F000873089F78EE78093EA001092EA008F89A0
:101400008093530192C08B8D9C8D1092E9001092B5
:101410004301109242019093410180934001898DD4
:10142000811156C08E899D89913A59F4813209F013
:1014300080C047E050E064E071E080E00E94650613
:1014400074C0913209F075C0833289F4888D90E0C0
:10145000982F88272F89822BA0E0B0E0809300018D
:1014600090930101A0930201B09303015EC080320A
:1014700069F48091E80082FFFCCF67E084E091E0AE
:101480000E948C068BEF8093E80006C0823209F040
:101490004CC08F8980930B0180914501882319F0FE
:1014A000EEEFFAE002C0E0E0F8E0809104019091F4
:1014B0000501A0910601B0910701803B9440A10570
:1014C000B10509F088C080910B0180FFA0C083C0E6
:1014D0000E94100FDC0112960D911C9113970115BB
:1014E000110539F1D801ED91FC910190F081E02DC9
:1014F000BE016B5E7F4FC8010995811116C0F801CE
:1015000000851185ECCF1130C1F0133091F48F8933
:10151000882309F455C08230E9F440E867E08BE3A2
:1015200096E00E942806882321F08EEF8093E80041
:1015300087C081E28093EB0083C08B8D9C8D0897E0
:1015400011F410933F0180913F01811136C063E493
:1015500076E038C0813029F440E86BE08FE296E015
:10156000E0CF833031F70E94100FDC011296ED902E
:10157000FC9013978E010F5F1F4F6801E114F10477
:1015800079F0D701ED91FC910680F781E02DB8014B
:10159000C7010995080F111DF701E084F184EECF12
:1015A000D8011C92F60101900020E9F73197BF01A4
:1015B0006C197D0940E0C601B4CF65E576E002C054
:1015C0006BE276E06115710509F4B3CFFB0144913C
:1015D00050E080E833CF0FB6F894A8958091600072
:1015E000886180936000109260000FBEA895EE3F66
:1015F0002AE0F20739F08091FE0A9091FF0A918368
:10160000808393CF1092FF0A1092FE0A8ECFEE3F96
:101610008AE0F80731F0808191819093FF0A8093EE
:10162000FE0A87E797E7918380839BE088E10FB606
:10163000F894A895809360000FBE9093600075CFDA
:101640006C960FB6F894DEBF0FBECDBFDF91CF9181
:10165000FF91EF91BF91AF919F918F917F916F918A
:101660005F914F913F912F911F910F91FF90EF90BC
:10167000DF90CF900F900FBE0F901F901895362FD0
:1016800090E0FC01E653FA4F4491FC01EE5CF84F08
:101690002491FC01E15AF84F8491882309F451C048
:1016A0004423E1F150E0FA013197EF30F105B0F554
:1016B000EA5AFF4F0C943F12909180009F7707C029
:1016C000909180009F7D03C090918000977F9093C0
:1016D000800024C094B59F7702C094B59F7D94BDCF
:1016E0001DC0909190009F7707C0909190009F7DC2
:1016F00003C090919000977F909390000FC09091BD
:10170000C0009F7703C09091C0009F7D9093C00060
:1017100005C09091C200977F9093C200E82FF0E03F
:10172000EE0FFF1FEF5AF84FA591B4918FB7F894C1
:10173000EC91311103C020952E2301C02E2B2C9348
:101740008FBF0895CF93DF9390E0FC01EE5CF84FDC
:101750002491FC01E15AF84F8491882361F190E0D3
:10176000880F991FFC01E95EF84FC591D491FC01E7
:10177000EF5AF84FA591B491611109C09FB7F89441
:101780008881209582238883EC912E230BC06230C0
:1017900061F49FB7F8943881822F809583238883E2
:1017A000EC912E2B2C939FBF06C08FB7F894E88145
:1017B0002E2B28838FBFDF91CF9108953FB7F894E8
:1017C00080913B0190913C01A0913D01B0913E017F
:1017D00026B5A89B05C02F3F19F00196A11DB11D8C
:1017E0003FBFBA2FA92F982F8827820F911DA11DC7
:1017F000B11DBC01CD0142E0660F771F881F991F04
:101800004A95D1F708958F929F92AF92BF92CF924F
:10181000DF92EF92FF926B017C010E94DE0B4B0185
:101820005C01C114D104E104F104F1F00E94DE0B6B
:10183000DC01CB0188199909AA09BB09883E9340AC
:10184000A105B10570F321E0C21AD108E108F10841
:1018500088EE880E83E0981EA11CB11CC114D1042F
:10186000E104F10419F7DDCFFF90EF90DF90CF9006
:10187000BF90AF909F908F9008958F929F92AF925C
:10188000BF92CF92DF92EF92FF920F931F93CF936D
:10189000DF935C016B018A0180910B01882309F4BD
:1018A0005EC080915301882309F459C0809146019C
:1018B00080FF05C08091E00082608093E000E80135
:1018C0008AEFF82E93E0E92E2FE3822E3AE3932E4F
:1018D000209709F43DC08FB7F894E092E900909109
:1018E000E80095FF06C09091F200282D291B922F49
:1018F00001C090E08FBF91110AC0FA94FF2079F1E6
:1019000061E070E080E090E00E94030CE1CF292FBD
:1019100030E0C217D3070CF49C2F8FB7F894E092F5
:10192000E9002091E80025FF11C0292F30E0C21BFB
:10193000D30BF601915020F041914093F100FACF82
:10194000C20ED31E9091E80095FF13C08FBFC0CF89
:101950005D9884E6809344011016110644F081E0FE
:1019600090E0F5019383828380E090E005C0C80198
:1019700003C09092E800EACFDF91CF911F910F91C1
:10198000FF90EF90DF90CF90BF90AF909F908F909F
:1019900008951F920F920FB60F9211242F933F9329
:1019A0008F939F93AF93BF9380914E0190914F017E
:1019B000A0915001B091510130913A0123E0230FE1
:1019C0002D3720F40196A11DB11D05C026E8230F77
:1019D0000296A11DB11D20933A0180934E01909370
:1019E0004F01A0935001B093510180913B01909120
:1019F0003C01A0913D01B0913E010196A11DB11D98
:101A000080933B0190933C01A0933D01B0933E0134
:101A1000BF91AF919F918F913F912F910F900FBEEA
:101A20000F901F9018958FB12CB193B130E0209595
:101A3000309520743327A90123E0559547952A95C1
:101A4000E1F7292F30E02095309520713327359527
:101A5000279535952795242B8095807F822B089597
:101A60001F93CF93DF931F92CDB7DEB7162F682F4A
:101A70008AE049830E943F0B612F8BE00E943F0B5D
:101A80004981642F89E00F90DF91CF911F910C94D1
:101A90003F0B83B7817F83BF83B7816083BF889506
:101AA00083B78E7F83BF0895E0914C01F0914D0183
:101AB000908180914B01892B8083E0914901F091C5
:101AC0004A01908180914801809589238083E0912B
:101AD0004C01F0914D01908180914B0180958923BB
:101AE00080830895E0914901F0914A0190818091AD
:101AF0004801892B8083E0914C01F0914D01908148
:101B000080914B0180958923808308958EBD0000CC
:101B10000DB407FEFDCF8EB508950F931F93CF939D
:101B2000DF931F92CDB7DEB7182F062F61E089E053
:101B300049830E943F0B68EC70E080E090E00E94D7
:101B4000030C60E0802F0E943F0B82E090E00E9437
:101B5000A6124981481729F0642F82E090E00E9484
:101B6000AE1264EF71E080E090E00E94030C61E04F
:101B7000802F0E943F0B0E94130D81238117D9F300
:101B80000F90DF91CF911F910F9108958091540193
:101B90008EBDE5E5F1E081910DB407FEFDCF8EBD70
:101BA00085E0E435F807B9F70DB407FEFDCF0895D9
:101BB00020E084E591E0B22FB111BFEFFC010024D9
:101BC000B193B193B193B1930394D1F708952F9248
:101BD0003F924F925F926F927F928F929F92AF92BD
:101BE000BF92CF92DF92EF92FF920F931F93CF930A
:101BF000DF93CDB7DEB728970FB6F894DEBF0FBEE0
:101C0000CDBF5A01822E912C9C01280D391D37FD24
:101C1000C4C0803891050CF0C0C09B01200F311D5D
:101C200037FDBBC0603471050CF0B7C0AB0177FF66
:101C300004C044275527461B570B477055279B0167
:101C400077FF02C0295F3F4FE3E035952795EA957E
:101C5000E1F777FF08C02150310968E070E0DB014F
:101C6000A41BB50BAD01602F66956695669570E077
:101C7000077011F06F5F7F4FDB01A20FB31FBA83B4
:101C8000A98339017694762C662477946794680E3C
:101C9000791EE12CF12C00E010E02301B0E84B0E9E
:101CA000511C68E070E0DB01A41BB50BBC83AB8367
:101CB00069817A812617370709F46FC0283031050A
:101CC00009F46BC02F3FBFEF3B070CF45BC0B201C0
:101CD000600F711FDB01AC5ABE4FBE83AD83D801CC
:101CE000A60DB71DAC5ABE4F6C0160E070E06815E0
:101CF00079050CF047C0E0E8CE16D10409F442C0E3
:101D0000D7FC34C02F3FFFEF3F0709F442C0FB016F
:101D1000EE0DFF1DEA0DFB1DE491042E01C0EE0F38
:101D20000A94EAF73C90E329EC9341155105F1F050
:101D300027303105D9F0FB01EE0DFF1DEA0DFB1D2B
:101D4000E4912E2E312CF1010B8002C0F595E79520
:101D50000A94E2F7F887EF83ED81FE813080EF810E
:101D6000F885E3291F01ED81FE8120826F5F7F4F9F
:101D7000ED81FE813196FE83ED83FFEFCF1ADF0AFE
:101D80001196B5CF2F5F3F4F00581F4FE80CF91C3D
:101D90008FCF4115510579F6E9CF28960FB6F89403
:101DA000DEBF0FBECDBFDF91CF911F910F91FF908E
:101DB000EF90DF90CF90BF90AF909F908F907F90EB
:101DC0006F905F904F903F902F900895FC0180910D
:101DD0005301811103C08FEF9FEF08959FB7F894CF
:101DE00082E08093E9002091F20030E012161306A1
:101DF00014F421E030E02115310559F0289884E6EB
:101E0000809352018091F10080838091F2008823B9
:101E100019F09FBFC90108958BE68093E800F9CFC0
:101E200080915A0581110DC082E08093560584E0AF
:101E300080935705109259051092580581E08093C0
:101E40005A0586E595E00895E2E6F5E013821282F0
:101E500088EE93E0A0E0B0E084839583A683B78307
:101E60008BE191E0918380838FEF9FEF958784874B
:101E7000E2EBF5E0138212821582168280E18187FF
:101E80001086178216861786108A118A128A8BE2AC
:101E900091E091838083158A148A178A168A81E0DB
:101EA000808F118E828F138E0895789484B582600E
:101EB00084BD84B5816084BD85B5826085BD85B5EE
:101EC000816085BD80916E00816080936E0010926C
:101ED00081008091810082608093810080918100E7
:101EE0008160809381008091800081608093800078
:101EF0008091910082608093910080919100816037
:101F000080939100809190008160809390008091F7
:101F1000C10084608093C1008091C1008260809381
:101F2000C1008091C10081608093C1008091C30095
:101F300081608093C3008091C00082608093C00064
:101F40008091C20081608093C20080917A00846099
:101F500080937A0080917A00826080937A008091E9
:101F60007A00816080937A0080917A008068809303
:101F70007A0010925301109247011092460180910D
:101F8000D70081608093D70080EA8093D80089B51C
:101F9000806189BD89B5826089BD09B400FEFDCF2D
:101FA00061E070E080E090E00E94030C8091D80036
:101FB0008F7C80618093D8008091E000807F809347
:101FC000E0008091E1008E7E8093E1008DE08093BF
:101FD000E200559A209AEEEFFFE7859194918B3FAE
:101FE0009C4D19F481E0809345018FEF9FEF909312
:101FF0006F0580936E05CFB7F894809155058111D8
:1020000027C0E0E7F7E08491E3E4F7E09491E82F5C
:10201000F0E0EE0FFF1FE95EF84FA591B491EC914F
:10202000E92321F461E081E10E943F0B61E081E15D
:102030000E94A20B8CB580618CBD8CB580648CBD78
:1020400061E08FE00E94A20B61E080E10E94A20BA0
:10205000809155058F5F80935505CFBFCEE7D7E0C0
:10206000FE018491229631966491882319F00E9492
:10207000A20BF6CF61E086E00E943F0B61E070E0CA
:1020800080E090E00E94030C60E086E00E943F0B3D
:102090006AE070E080E090E00E94030C61E086E07E
:1020A0000E943F0BEBE6F7E0E491F0E0EE0FFF1F3C
:1020B000EF5AF84F8591949190934D0180934C0184
:1020C000EEE3F7E0E491E0934B01E3E6F7E0E4911F
:1020D000F0E0EE0FFF1FEF5AF84F85919491909327
:1020E0004A0180934901E6E3F7E0E491E093480177
:1020F0008CB58C7F8CBD8DB581608DBD0E94540DDB
:10210000C5E2D7E01C2F135FFE0184910E94860D6B
:1021100021961C13F9CF0E94720D8091640081609A
:102120008093640080916400826080936400809159
:102130006400806880936400809164008064809370
:10214000640080916500816080936500C0E0D4E008
:1021500080E00E94860D2197D9F70E94130D87FF1A
:102160003CC00E94540D85EA0E94860D0E94720DAB
:1021700040E060E080E00E94300D0E94130D84FD7D
:1021800003C00E94490DF9CF41E061E081E00E9467
:10219000300D0E94540D84EA0E94860D0E94720D3B
:1021A0001CC060E089E00E943F0B0E94130D847800
:1021B000843821F44FEF6BE00E948D0D0E94130DC7
:1021C0008471843121F440E06AE00E948D0D68EC56
:1021D00070E080E090E00E94030C0E94130D82FDED
:1021E000E0CF61E089E00E943F0B60E08AE00E945E
:1021F0003F0BCEEEDFEF1C2FCC3F19F441E060E047
:1022000004C0C83129F440E061E081E00E94300D53
:102210000E94D80D00E128E547E656E0BE0184E1C2
:1022200090E00E94E70D0E94C60D6BE170E080E037
:1022300090E00E94030C103F31F46AEF70E080E000
:1022400090E00E94030C2196C931D105A1F66EEEF3
:1022500072E080E090E00E94030C61E089E00E945F
:102260003F0B82E090E00E94A612882359F061E0C3
:1022700085E00E94A20B61E08DE00E94A20B81E04C
:1022800080935405809164008E7F8093640087EC76
:1022900080937C0080E280937B0062E070E080E0CD
:1022A00090E00E94030C80917A00806480937A0011
:1022B00080917A0086FDFCCFC0917800D0917900A2
:1022C000C095D0958EE580937C0062E070E080E060
:1022D00090E00E94030C80917A00806480937A00E1
:1022E00080917A0086FDFCCF0091780010917900F2
:1022F0000E94DE0B9B01AC012095309540955095D6
:10230000009510950C9FD0010D9FB00D1C9FB00D36
:1023100011240E94DB126B017C010E94DE0B6C0D0C
:102320007D1D8E1D9F1D611571058105910511F0A3
:102330000E949D128091640081608093640081E21C
:102340008093BB05C8EFDFEF02E210E00E94D80DDA
:102350001093C7050093C605D093C905C093C8055F
:102360004AE050E06FE271E082EB95E00E9499064E
:1023700064E170E080E090E00E94030C0E94C60DD2
:102380002296CC31D10511F768EE73E080E090E041
:102390000E94030CC0E0D0E011E02FB7F8948091C8
:1023A0004E0190914F01A0915001B09151012FBF6A
:1023B0002091C405222391F02091BC05382F321BB7
:1023C0003093C5052091B9053091BA052F5F3F4F75
:1023D0003093BA052093B9051092C4054091C00509
:1023E0005091C1056091C2057091C305841795078E
:1023F000A607B70730F4481B4230D8F10E94490DB8
:1024000038C02091BB05AC01BD01420F511D611DBB
:10241000711D4093C0055093C1056093C205709330
:10242000C3058093BC059093BD05A093BE05B093F2
:10243000BF051093C4050E94D80D1092C9051092D3
:10244000C8051092C7051092C60500E420E84DE9C2
:1024500057E060E070E080E090E00E94E70D40E02F
:1024600054E064E571E082E695E00E943D0C0E9434
:10247000C60D209709F491CF0E9400008ECFEE0F79
:10248000FF1F0590F491E02D099481E090E0F8940D
:102490000C941F138F929F92AF92BF92CF92DF92B4
:1024A000EF92FF92CF93DF93EC01688179818A816B
:1024B0009B81611571058105910521F464E279ED37
:1024C0008BE597E02DE133EF41E050E00E94BC1234
:1024D00049015A019B01AC01A7EAB1E40E94DB1259
:1024E0006B017C01ACEEB4EFA50194010E94E912EE
:1024F000DC01CB018C0D9D1DAE1DBF1DB7FF03C0C0
:102500000197A109B04888839983AA83BB83BC0142
:10251000CD019F77DF91CF91FF90EF90DF90CF902B
:10252000BF90AF909F908F9008950E944A12089597
:102530008CE091E00E944A12089560930C01709320
:102540000D0180930E0190930F010895F999FECF2C
:1025500092BD81BDF89A992780B50895262FF999E3
:10256000FECF1FBA92BD81BD20BD0FB6F894FA9A76
:10257000F99A0FBE01960895052E97FB1EF400945C
:102580000E94D31257FD07D00E94EE1207FC03D021
:102590004EF40C94D31250954095309521953F4FB1
:1025A0004F4F5F4F089590958095709561957F4F3F
:1025B0008F4F9F4F08950E941013A59F900DB49FB9
:1025C000900DA49F800D911D11240895B7FF0C94C8
:1025D000DB120E94DB12821B930B0895A1E21A2EDC
:1025E000AA1BBB1BFD010DC0AA1FBB1FEE1FFF1FB7
:1025F000A217B307E407F50720F0A21BB30BE40B07
:10260000F50B661F771F881F991F1A9469F760954D
:102610007095809590959B01AC01BD01CF01089507
:10262000A29FB001B39FC001A39F700D811D112413
:10263000911DB29F700D811D1124911D0895F89474
:02264000FFCFCA
:10264200FFFFFFFF00E100000000000001000000AA
:1026520000C1808100000000000000C4063D0CE5BE
:102662000672084E08DA0600000000FF06990650BE
:0A2672006F636B6574205044410053
:00000001FF
